{
  "contractName": "Letter",
  "abi": [
    {
      "anonymous": false,
      "inputs": [
        {
          "indexed": true,
          "internalType": "address",
          "name": "owner",
          "type": "address"
        },
        {
          "indexed": true,
          "internalType": "address",
          "name": "approved",
          "type": "address"
        },
        {
          "indexed": true,
          "internalType": "uint256",
          "name": "tokenId",
          "type": "uint256"
        }
      ],
      "name": "Approval",
      "type": "event"
    },
    {
      "anonymous": false,
      "inputs": [
        {
          "indexed": true,
          "internalType": "address",
          "name": "owner",
          "type": "address"
        },
        {
          "indexed": true,
          "internalType": "address",
          "name": "operator",
          "type": "address"
        },
        {
          "indexed": false,
          "internalType": "bool",
          "name": "approved",
          "type": "bool"
        }
      ],
      "name": "ApprovalForAll",
      "type": "event"
    },
    {
      "anonymous": false,
      "inputs": [
        {
          "indexed": true,
          "internalType": "address",
          "name": "previousOwner",
          "type": "address"
        },
        {
          "indexed": true,
          "internalType": "address",
          "name": "newOwner",
          "type": "address"
        }
      ],
      "name": "OwnershipTransferred",
      "type": "event"
    },
    {
      "anonymous": false,
      "inputs": [
        {
          "indexed": true,
          "internalType": "bytes32",
          "name": "role",
          "type": "bytes32"
        },
        {
          "indexed": true,
          "internalType": "bytes32",
          "name": "previousAdminRole",
          "type": "bytes32"
        },
        {
          "indexed": true,
          "internalType": "bytes32",
          "name": "newAdminRole",
          "type": "bytes32"
        }
      ],
      "name": "RoleAdminChanged",
      "type": "event"
    },
    {
      "anonymous": false,
      "inputs": [
        {
          "indexed": true,
          "internalType": "bytes32",
          "name": "role",
          "type": "bytes32"
        },
        {
          "indexed": true,
          "internalType": "address",
          "name": "account",
          "type": "address"
        },
        {
          "indexed": true,
          "internalType": "address",
          "name": "sender",
          "type": "address"
        }
      ],
      "name": "RoleGranted",
      "type": "event"
    },
    {
      "anonymous": false,
      "inputs": [
        {
          "indexed": true,
          "internalType": "bytes32",
          "name": "role",
          "type": "bytes32"
        },
        {
          "indexed": true,
          "internalType": "address",
          "name": "account",
          "type": "address"
        },
        {
          "indexed": true,
          "internalType": "address",
          "name": "sender",
          "type": "address"
        }
      ],
      "name": "RoleRevoked",
      "type": "event"
    },
    {
      "anonymous": false,
      "inputs": [
        {
          "indexed": true,
          "internalType": "address",
          "name": "from",
          "type": "address"
        },
        {
          "indexed": true,
          "internalType": "address",
          "name": "to",
          "type": "address"
        },
        {
          "indexed": true,
          "internalType": "uint256",
          "name": "tokenId",
          "type": "uint256"
        }
      ],
      "name": "Transfer",
      "type": "event"
    },
    {
      "inputs": [],
      "name": "DEFAULT_ADMIN_ROLE",
      "outputs": [
        {
          "internalType": "bytes32",
          "name": "",
          "type": "bytes32"
        }
      ],
      "stateMutability": "view",
      "type": "function"
    },
    {
      "inputs": [
        {
          "internalType": "address",
          "name": "to",
          "type": "address"
        },
        {
          "internalType": "uint256",
          "name": "tokenId",
          "type": "uint256"
        }
      ],
      "name": "approve",
      "outputs": [],
      "stateMutability": "nonpayable",
      "type": "function"
    },
    {
      "inputs": [
        {
          "internalType": "address",
          "name": "owner",
          "type": "address"
        }
      ],
      "name": "balanceOf",
      "outputs": [
        {
          "internalType": "uint256",
          "name": "",
          "type": "uint256"
        }
      ],
      "stateMutability": "view",
      "type": "function"
    },
    {
      "inputs": [
        {
          "internalType": "uint256",
          "name": "tokenId",
          "type": "uint256"
        }
      ],
      "name": "getApproved",
      "outputs": [
        {
          "internalType": "address",
          "name": "",
          "type": "address"
        }
      ],
      "stateMutability": "view",
      "type": "function"
    },
    {
      "inputs": [
        {
          "internalType": "bytes32",
          "name": "role",
          "type": "bytes32"
        }
      ],
      "name": "getRoleAdmin",
      "outputs": [
        {
          "internalType": "bytes32",
          "name": "",
          "type": "bytes32"
        }
      ],
      "stateMutability": "view",
      "type": "function"
    },
    {
      "inputs": [
        {
          "internalType": "bytes32",
          "name": "role",
          "type": "bytes32"
        },
        {
          "internalType": "address",
          "name": "account",
          "type": "address"
        }
      ],
      "name": "grantRole",
      "outputs": [],
      "stateMutability": "nonpayable",
      "type": "function"
    },
    {
      "inputs": [
        {
          "internalType": "bytes32",
          "name": "role",
          "type": "bytes32"
        },
        {
          "internalType": "address",
          "name": "account",
          "type": "address"
        }
      ],
      "name": "hasRole",
      "outputs": [
        {
          "internalType": "bool",
          "name": "",
          "type": "bool"
        }
      ],
      "stateMutability": "view",
      "type": "function"
    },
    {
      "inputs": [
        {
          "internalType": "address",
          "name": "owner",
          "type": "address"
        },
        {
          "internalType": "address",
          "name": "operator",
          "type": "address"
        }
      ],
      "name": "isApprovedForAll",
      "outputs": [
        {
          "internalType": "bool",
          "name": "",
          "type": "bool"
        }
      ],
      "stateMutability": "view",
      "type": "function"
    },
    {
      "inputs": [],
      "name": "name",
      "outputs": [
        {
          "internalType": "string",
          "name": "",
          "type": "string"
        }
      ],
      "stateMutability": "view",
      "type": "function"
    },
    {
      "inputs": [],
      "name": "owner",
      "outputs": [
        {
          "internalType": "address",
          "name": "",
          "type": "address"
        }
      ],
      "stateMutability": "view",
      "type": "function"
    },
    {
      "inputs": [
        {
          "internalType": "uint256",
          "name": "tokenId",
          "type": "uint256"
        }
      ],
      "name": "ownerOf",
      "outputs": [
        {
          "internalType": "address",
          "name": "",
          "type": "address"
        }
      ],
      "stateMutability": "view",
      "type": "function"
    },
    {
      "inputs": [],
      "name": "renounceOwnership",
      "outputs": [],
      "stateMutability": "nonpayable",
      "type": "function"
    },
    {
      "inputs": [
        {
          "internalType": "bytes32",
          "name": "role",
          "type": "bytes32"
        },
        {
          "internalType": "address",
          "name": "account",
          "type": "address"
        }
      ],
      "name": "renounceRole",
      "outputs": [],
      "stateMutability": "nonpayable",
      "type": "function"
    },
    {
      "inputs": [
        {
          "internalType": "bytes32",
          "name": "role",
          "type": "bytes32"
        },
        {
          "internalType": "address",
          "name": "account",
          "type": "address"
        }
      ],
      "name": "revokeRole",
      "outputs": [],
      "stateMutability": "nonpayable",
      "type": "function"
    },
    {
      "inputs": [
        {
          "internalType": "address",
          "name": "from",
          "type": "address"
        },
        {
          "internalType": "address",
          "name": "to",
          "type": "address"
        },
        {
          "internalType": "uint256",
          "name": "tokenId",
          "type": "uint256"
        }
      ],
      "name": "safeTransferFrom",
      "outputs": [],
      "stateMutability": "nonpayable",
      "type": "function"
    },
    {
      "inputs": [
        {
          "internalType": "address",
          "name": "from",
          "type": "address"
        },
        {
          "internalType": "address",
          "name": "to",
          "type": "address"
        },
        {
          "internalType": "uint256",
          "name": "tokenId",
          "type": "uint256"
        },
        {
          "internalType": "bytes",
          "name": "_data",
          "type": "bytes"
        }
      ],
      "name": "safeTransferFrom",
      "outputs": [],
      "stateMutability": "nonpayable",
      "type": "function"
    },
    {
      "inputs": [
        {
          "internalType": "address",
          "name": "operator",
          "type": "address"
        },
        {
          "internalType": "bool",
          "name": "approved",
          "type": "bool"
        }
      ],
      "name": "setApprovalForAll",
      "outputs": [],
      "stateMutability": "nonpayable",
      "type": "function"
    },
    {
      "inputs": [],
      "name": "symbol",
      "outputs": [
        {
          "internalType": "string",
          "name": "",
          "type": "string"
        }
      ],
      "stateMutability": "view",
      "type": "function"
    },
    {
      "inputs": [
        {
          "internalType": "uint256",
          "name": "tokenId",
          "type": "uint256"
        }
      ],
      "name": "tokenURI",
      "outputs": [
        {
          "internalType": "string",
          "name": "",
          "type": "string"
        }
      ],
      "stateMutability": "view",
      "type": "function"
    },
    {
      "inputs": [
        {
          "internalType": "address",
          "name": "from",
          "type": "address"
        },
        {
          "internalType": "address",
          "name": "to",
          "type": "address"
        },
        {
          "internalType": "uint256",
          "name": "tokenId",
          "type": "uint256"
        }
      ],
      "name": "transferFrom",
      "outputs": [],
      "stateMutability": "nonpayable",
      "type": "function"
    },
    {
      "inputs": [
        {
          "internalType": "address",
          "name": "newOwner",
          "type": "address"
        }
      ],
      "name": "transferOwnership",
      "outputs": [],
      "stateMutability": "nonpayable",
      "type": "function"
    },
    {
      "inputs": [
        {
          "internalType": "string",
          "name": "_titleMint",
          "type": "string"
        },
        {
          "internalType": "string",
          "name": "_firstPageMint",
          "type": "string"
        },
        {
          "internalType": "string",
          "name": "_authorMint",
          "type": "string"
        }
      ],
      "name": "createLetter",
      "outputs": [],
      "stateMutability": "nonpayable",
      "type": "function"
    },
    {
      "inputs": [
        {
          "internalType": "address",
          "name": "_account",
          "type": "address"
        }
      ],
      "name": "addAdmin",
      "outputs": [],
      "stateMutability": "nonpayable",
      "type": "function"
    },
    {
      "inputs": [],
      "name": "renounceAdmin",
      "outputs": [],
      "stateMutability": "nonpayable",
      "type": "function"
    },
    {
      "inputs": [
        {
          "internalType": "address",
          "name": "_account",
          "type": "address"
        }
      ],
      "name": "addViewer",
      "outputs": [],
      "stateMutability": "nonpayable",
      "type": "function"
    },
    {
      "inputs": [
        {
          "internalType": "address",
          "name": "_account",
          "type": "address"
        }
      ],
      "name": "removeViewer",
      "outputs": [],
      "stateMutability": "nonpayable",
      "type": "function"
    },
    {
      "inputs": [],
      "name": "openView",
      "outputs": [],
      "stateMutability": "nonpayable",
      "type": "function"
    },
    {
      "inputs": [],
      "name": "closeView",
      "outputs": [],
      "stateMutability": "nonpayable",
      "type": "function"
    },
    {
      "inputs": [],
      "name": "viewTitle",
      "outputs": [
        {
          "internalType": "string",
          "name": "",
          "type": "string"
        }
      ],
      "stateMutability": "view",
      "type": "function"
    },
    {
      "inputs": [],
      "name": "viewAuthor",
      "outputs": [
        {
          "internalType": "string",
          "name": "",
          "type": "string"
        }
      ],
      "stateMutability": "view",
      "type": "function"
    },
    {
      "inputs": [
        {
          "internalType": "uint256",
          "name": "_pageN",
          "type": "uint256"
        }
      ],
      "name": "viewPage",
      "outputs": [
        {
          "internalType": "string",
          "name": "",
          "type": "string"
        }
      ],
      "stateMutability": "view",
      "type": "function"
    },
    {
      "inputs": [],
      "name": "viewPageCount",
      "outputs": [
        {
          "internalType": "uint256",
          "name": "",
          "type": "uint256"
        }
      ],
      "stateMutability": "view",
      "type": "function"
    },
    {
      "inputs": [],
      "name": "isOpen",
      "outputs": [
        {
          "internalType": "bool",
          "name": "",
          "type": "bool"
        }
      ],
      "stateMutability": "view",
      "type": "function"
    },
    {
      "inputs": [
        {
          "internalType": "string",
          "name": "_pageMint",
          "type": "string"
        }
      ],
      "name": "mintAppendPage",
      "outputs": [
        {
          "internalType": "uint256",
          "name": "",
          "type": "uint256"
        }
      ],
      "stateMutability": "nonpayable",
      "type": "function"
    },
    {
      "inputs": [
        {
          "internalType": "bytes4",
          "name": "interfaceId",
          "type": "bytes4"
        }
      ],
      "name": "supportsInterface",
      "outputs": [
        {
          "internalType": "bool",
          "name": "",
          "type": "bool"
        }
      ],
      "stateMutability": "view",
      "type": "function"
    }
  ],
  "bytecode": "0x608060405234801561001057600080fd5b50614d0a806100206000396000f3fe608060405234801561001057600080fd5b50600436106102115760003560e01c8063715018a611610125578063a84214b5116100ad578063d547741f1161007c578063d547741f146105d8578063e4129f67146105f4578063e86d235e14610624578063e985e9c51461062e578063f2fde38b1461065e57610211565b8063a84214b514610552578063b88d4fde14610570578063c87b56dd1461058c578063d1d98914146105bc57610211565b806391d14854116100f457806391d14854146104c057806395d89b41146104f05780639dd8731b1461050e578063a217fddf14610518578063a22cb4651461053657610211565b8063715018a61461047057806383f4201b1461047a5780638bad0c0a146104985780638da5cb5b146104a257610211565b80633678f45e116101a8578063601f8cf511610177578063601f8cf5146103bc5780636352211e146103d85780636f6e4e8514610408578063704802751461042457806370a082311461044057610211565b80633678f45e1461033457806342842e0e1461036457806347535d7b146103805780635c932d121461039e57610211565b806323b872dd116101e457806323b872dd146102b0578063248a9ca3146102cc5780632f2ff15d146102fc57806336568abe1461031857610211565b806301ffc9a71461021657806306fdde0314610246578063081812fc14610264578063095ea7b314610294575b600080fd5b610230600480360381019061022b9190613831565b61067a565b60405161023d9190614462565b60405180910390f35b61024e6107c4565b60405161025b9190614498565b60405180910390f35b61027e6004803603810190610279919061395b565b610856565b60405161028b91906143fb565b60405180910390f35b6102ae60048036038101906102a99190613790565b6108db565b005b6102ca60048036038101906102c5919061368a565b6109f3565b005b6102e660048036038101906102e191906137cc565b610a53565b6040516102f3919061447d565b60405180910390f35b610316600480360381019061031191906137f5565b610a73565b005b610332600480360381019061032d91906137f5565b610a9c565b005b61034e60048036038101906103499190613883565b610b1f565b60405161035b91906147fa565b60405180910390f35b61037e6004803603810190610379919061368a565b610c62565b005b610388610c82565b6040516103959190614462565b60405180910390f35b6103a6610c99565b6040516103b39190614498565b60405180910390f35b6103d660048036038101906103d19190613625565b610da9565b005b6103f260048036038101906103ed919061395b565b610e09565b6040516103ff91906143fb565b60405180910390f35b610422600480360381019061041d91906138c4565b610ebb565b005b61043e60048036038101906104399190613625565b611268565b005b61045a60048036038101906104559190613625565b6112ab565b60405161046791906147fa565b60405180910390f35b610478611363565b005b6104826114a0565b60405161048f91906147fa565b60405180910390f35b6104a061152f565b005b6104aa61155b565b6040516104b791906143fb565b60405180910390f35b6104da60048036038101906104d591906137f5565b611585565b6040516104e79190614462565b60405180910390f35b6104f86115f0565b6040516105059190614498565b60405180910390f35b610516611682565b005b6105206116d2565b60405161052d919061447d565b60405180910390f35b610550600480360381019061054b9190613754565b6116d9565b005b61055a61185a565b6040516105679190614498565b60405180910390f35b61058a600480360381019061058591906136d9565b61196a565b005b6105a660048036038101906105a1919061395b565b6119cc565b6040516105b39190614498565b60405180910390f35b6105d660048036038101906105d19190613625565b611a73565b005b6105f260048036038101906105ed91906137f5565b611ad3565b005b61060e6004803603810190610609919061395b565b611afc565b60405161061b9190614498565b60405180910390f35b61062c611c9c565b005b6106486004803603810190610643919061364e565b611cec565b6040516106559190614462565b60405180910390f35b61067860048036038101906106739190613625565b611d80565b005b60007f7965db0b000000000000000000000000000000000000000000000000000000007bffffffffffffffffffffffffffffffffffffffffffffffffffffffff1916827bffffffffffffffffffffffffffffffffffffffffffffffffffffffff1916148061074557507f80ac58cd000000000000000000000000000000000000000000000000000000007bffffffffffffffffffffffffffffffffffffffffffffffffffffffff1916827bffffffffffffffffffffffffffffffffffffffffffffffffffffffff1916145b806107ad57507f5b5e139f000000000000000000000000000000000000000000000000000000007bffffffffffffffffffffffffffffffffffffffffffffffffffffffff1916827bffffffffffffffffffffffffffffffffffffffffffffffffffffffff1916145b806107bd57506107bc82611f2c565b5b9050919050565b6060606580546107d390614ae8565b80601f01602080910402602001604051908101604052809291908181526020018280546107ff90614ae8565b801561084c5780601f106108215761010080835404028352916020019161084c565b820191906000526020600020905b81548152906001019060200180831161082f57829003601f168201915b5050505050905090565b600061086182611fa6565b6108a0576040517f08c379a0000000000000000000000000000000000000000000000000000000008152600401610897906146da565b60405180910390fd5b6069600083815260200190815260200160002060009054906101000a900473ffffffffffffffffffffffffffffffffffffffff169050919050565b60006108e682610e09565b90508073ffffffffffffffffffffffffffffffffffffffff168373ffffffffffffffffffffffffffffffffffffffff161415610957576040517f08c379a000000000000000000000000000000000000000000000000000000000815260040161094e9061475a565b60405180910390fd5b8073ffffffffffffffffffffffffffffffffffffffff16610976612012565b73ffffffffffffffffffffffffffffffffffffffff1614806109a557506109a48161099f612012565b611cec565b5b6109e4576040517f08c379a00000000000000000000000000000000000000000000000000000000081526004016109db9061461a565b60405180910390fd5b6109ee838361201a565b505050565b610a046109fe612012565b826120d3565b610a43576040517f08c379a0000000000000000000000000000000000000000000000000000000008152600401610a3a9061477a565b60405180910390fd5b610a4e8383836121b1565b505050565b600060c96000838152602001908152602001600020600101549050919050565b610a7c82610a53565b610a8d81610a88612012565b61240d565b610a9783836124aa565b505050565b610aa4612012565b73ffffffffffffffffffffffffffffffffffffffff168173ffffffffffffffffffffffffffffffffffffffff1614610b11576040517f08c379a0000000000000000000000000000000000000000000000000000000008152600401610b08906147da565b60405180910390fd5b610b1b828261258b565b5050565b6000610b29612012565b73ffffffffffffffffffffffffffffffffffffffff16610b4761155b565b73ffffffffffffffffffffffffffffffffffffffff1614610b9d576040517f08c379a0000000000000000000000000000000000000000000000000000000008152600401610b94906146fa565b60405180910390fd5b6000610ba88361266d565b1415610be9576040517f08c379a0000000000000000000000000000000000000000000000000000000008152600401610be0906145da565b60405180910390fd5b62010000610bf68361266d565b1115610c37576040517f08c379a0000000000000000000000000000000000000000000000000000000008152600401610c2e906145ba565b60405180910390fd5b610c4160ff61267d565b6000610c4d60ff612693565b9050610c5933826126a1565b80915050919050565b610c7d8383836040518060200160405280600081525061196a565b505050565b600060fd60009054906101000a900460ff16905090565b606060fd60009054906101000a900460ff16610d1957610cd97fdfb118e7fb180cb21baebdc5d0b33ccc34c8e0be422c1a4f57131ff74b98ca6e33611585565b610d18576040517f08c379a0000000000000000000000000000000000000000000000000000000008152600401610d0f9061451a565b60405180910390fd5b5b60fb8054610d2690614ae8565b80601f0160208091040260200160405190810160405280929190818152602001828054610d5290614ae8565b8015610d9f5780601f10610d7457610100808354040283529160200191610d9f565b820191906000526020600020905b815481529060010190602001808311610d8257829003601f168201915b5050505050905090565b7fdf8b4c520ffe197c5343c6f5aec59570151ef9a492f2c624fd45ddde6135ec42610ddb81610dd6612012565b61240d565b610e057fdfb118e7fb180cb21baebdc5d0b33ccc34c8e0be422c1a4f57131ff74b98ca6e83610a73565b5050565b6000806067600084815260200190815260200160002060009054906101000a900473ffffffffffffffffffffffffffffffffffffffff169050600073ffffffffffffffffffffffffffffffffffffffff168173ffffffffffffffffffffffffffffffffffffffff161415610eb2576040517f08c379a0000000000000000000000000000000000000000000000000000000008152600401610ea99061465a565b60405180910390fd5b80915050919050565b600060019054906101000a900460ff1680610ee1575060008054906101000a900460ff16155b610f20576040517f08c379a0000000000000000000000000000000000000000000000000000000008152600401610f179061469a565b60405180910390fd5b60008060019054906101000a900460ff161590508015610f70576001600060016101000a81548160ff02191690831515021790555060016000806101000a81548160ff0219169083151502179055505b610fe46040518060400160405280600681526020017f4c657474657200000000000000000000000000000000000000000000000000008152506040518060400160405280600481526020017f4c4554540000000000000000000000000000000000000000000000000000000081525061286f565b6110586040518060400160405280600681526020017f4c657474657200000000000000000000000000000000000000000000000000008152506040518060400160405280600481526020017f4c4554540000000000000000000000000000000000000000000000000000000081525061286f565b60006110638461266d565b14156110a4576040517f08c379a000000000000000000000000000000000000000000000000000000000815260040161109b9061479a565b60405180910390fd5b620100006110b18461266d565b11156110f2576040517f08c379a00000000000000000000000000000000000000000000000000000000081526004016110e9906145ba565b60405180910390fd5b60006110fd8561266d565b1461116657604061110d8561266d565b111561114e576040517f08c379a00000000000000000000000000000000000000000000000000000000081526004016111459061459a565b60405180910390fd5b8360fb9080519060200190611164929190613434565b505b60006111718361266d565b146111da5760406111818361266d565b11156111c2576040517f08c379a00000000000000000000000000000000000000000000000000000000081526004016111b99061467a565b60405180910390fd5b8160fc90805190602001906111d8929190613434565b505b6111ed336111e860ff612693565b6126a1565b6112177fdf8b4c520ffe197c5343c6f5aec59570151ef9a492f2c624fd45ddde6135ec4233610a73565b6112417fdfb118e7fb180cb21baebdc5d0b33ccc34c8e0be422c1a4f57131ff74b98ca6e33610a73565b80156112625760008060016101000a81548160ff0219169083151502179055505b50505050565b6000801b61127d81611278612012565b61240d565b6112a77fdf8b4c520ffe197c5343c6f5aec59570151ef9a492f2c624fd45ddde6135ec4283610a73565b5050565b60008073ffffffffffffffffffffffffffffffffffffffff168273ffffffffffffffffffffffffffffffffffffffff16141561131c576040517f08c379a00000000000000000000000000000000000000000000000000000000081526004016113139061463a565b60405180910390fd5b606860008373ffffffffffffffffffffffffffffffffffffffff1673ffffffffffffffffffffffffffffffffffffffff168152602001908152602001600020549050919050565b61136b612012565b73ffffffffffffffffffffffffffffffffffffffff1661138961155b565b73ffffffffffffffffffffffffffffffffffffffff16146113df576040517f08c379a00000000000000000000000000000000000000000000000000000000081526004016113d6906146fa565b60405180910390fd5b600073ffffffffffffffffffffffffffffffffffffffff16609760009054906101000a900473ffffffffffffffffffffffffffffffffffffffff1673ffffffffffffffffffffffffffffffffffffffff167f8be0079c531659141344cd1fd0a4f28419497f9722a3daafe3b4186f6b6457e060405160405180910390a36000609760006101000a81548173ffffffffffffffffffffffffffffffffffffffff021916908373ffffffffffffffffffffffffffffffffffffffff160217905550565b600060fd60009054906101000a900460ff16611520576114e07fdfb118e7fb180cb21baebdc5d0b33ccc34c8e0be422c1a4f57131ff74b98ca6e33611585565b61151f576040517f08c379a00000000000000000000000000000000000000000000000000000000081526004016115169061451a565b60405180910390fd5b5b61152a60ff612693565b905090565b6115597fdf8b4c520ffe197c5343c6f5aec59570151ef9a492f2c624fd45ddde6135ec4233610a9c565b565b6000609760009054906101000a900473ffffffffffffffffffffffffffffffffffffffff16905090565b600060c9600084815260200190815260200160002060000160008373ffffffffffffffffffffffffffffffffffffffff1673ffffffffffffffffffffffffffffffffffffffff16815260200190815260200160002060009054906101000a900460ff16905092915050565b6060606680546115ff90614ae8565b80601f016020809104026020016040519081016040528092919081815260200182805461162b90614ae8565b80156116785780601f1061164d57610100808354040283529160200191611678565b820191906000526020600020905b81548152906001019060200180831161165b57829003601f168201915b5050505050905090565b7fdf8b4c520ffe197c5343c6f5aec59570151ef9a492f2c624fd45ddde6135ec426116b4816116af612012565b61240d565b600060fd60006101000a81548160ff02191690831515021790555050565b6000801b81565b6116e1612012565b73ffffffffffffffffffffffffffffffffffffffff168273ffffffffffffffffffffffffffffffffffffffff16141561174f576040517f08c379a00000000000000000000000000000000000000000000000000000000081526004016117469061457a565b60405180910390fd5b80606a600061175c612012565b73ffffffffffffffffffffffffffffffffffffffff1673ffffffffffffffffffffffffffffffffffffffff16815260200190815260200160002060008473ffffffffffffffffffffffffffffffffffffffff1673ffffffffffffffffffffffffffffffffffffffff16815260200190815260200160002060006101000a81548160ff0219169083151502179055508173ffffffffffffffffffffffffffffffffffffffff16611809612012565b73ffffffffffffffffffffffffffffffffffffffff167f17307eab39ab6107e8899845ad3d59bd9653f200f220920489ca2b5937696c318360405161184e9190614462565b60405180910390a35050565b606060fd60009054906101000a900460ff166118da5761189a7fdfb118e7fb180cb21baebdc5d0b33ccc34c8e0be422c1a4f57131ff74b98ca6e33611585565b6118d9576040517f08c379a00000000000000000000000000000000000000000000000000000000081526004016118d09061451a565b60405180910390fd5b5b60fc80546118e790614ae8565b80601f016020809104026020016040519081016040528092919081815260200182805461191390614ae8565b80156119605780601f1061193557610100808354040283529160200191611960565b820191906000526020600020905b81548152906001019060200180831161194357829003601f168201915b5050505050905090565b61197b611975612012565b836120d3565b6119ba576040517f08c379a00000000000000000000000000000000000000000000000000000000081526004016119b19061477a565b60405180910390fd5b6119c684848484612964565b50505050565b60606119d782611fa6565b611a16576040517f08c379a0000000000000000000000000000000000000000000000000000000008152600401611a0d9061473a565b60405180910390fd5b6000611a206129c0565b90506000815111611a405760405180602001604052806000815250611a6b565b80611a4a846129d7565b604051602001611a5b92919061439d565b6040516020818303038152906040525b915050919050565b7fdf8b4c520ffe197c5343c6f5aec59570151ef9a492f2c624fd45ddde6135ec42611aa581611aa0612012565b61240d565b611acf7fdfb118e7fb180cb21baebdc5d0b33ccc34c8e0be422c1a4f57131ff74b98ca6e83611ad3565b5050565b611adc82610a53565b611aed81611ae8612012565b61240d565b611af7838361258b565b505050565b606060fd60009054906101000a900460ff16611b7c57611b3c7fdfb118e7fb180cb21baebdc5d0b33ccc34c8e0be422c1a4f57131ff74b98ca6e33611585565b611b7b576040517f08c379a0000000000000000000000000000000000000000000000000000000008152600401611b729061451a565b60405180910390fd5b5b611b8660ff612693565b821115611bc8576040517f08c379a0000000000000000000000000000000000000000000000000000000008152600401611bbf906147ba565b60405180910390fd5b60fe8281548110611c02577f4e487b7100000000000000000000000000000000000000000000000000000000600052603260045260246000fd5b906000526020600020018054611c1790614ae8565b80601f0160208091040260200160405190810160405280929190818152602001828054611c4390614ae8565b8015611c905780601f10611c6557610100808354040283529160200191611c90565b820191906000526020600020905b815481529060010190602001808311611c7357829003601f168201915b50505050509050919050565b7fdf8b4c520ffe197c5343c6f5aec59570151ef9a492f2c624fd45ddde6135ec42611cce81611cc9612012565b61240d565b600160fd60006101000a81548160ff02191690831515021790555050565b6000606a60008473ffffffffffffffffffffffffffffffffffffffff1673ffffffffffffffffffffffffffffffffffffffff16815260200190815260200160002060008373ffffffffffffffffffffffffffffffffffffffff1673ffffffffffffffffffffffffffffffffffffffff16815260200190815260200160002060009054906101000a900460ff16905092915050565b611d88612012565b73ffffffffffffffffffffffffffffffffffffffff16611da661155b565b73ffffffffffffffffffffffffffffffffffffffff1614611dfc576040517f08c379a0000000000000000000000000000000000000000000000000000000008152600401611df3906146fa565b60405180910390fd5b600073ffffffffffffffffffffffffffffffffffffffff168173ffffffffffffffffffffffffffffffffffffffff161415611e6c576040517f08c379a0000000000000000000000000000000000000000000000000000000008152600401611e63906144fa565b60405180910390fd5b8073ffffffffffffffffffffffffffffffffffffffff16609760009054906101000a900473ffffffffffffffffffffffffffffffffffffffff1673ffffffffffffffffffffffffffffffffffffffff167f8be0079c531659141344cd1fd0a4f28419497f9722a3daafe3b4186f6b6457e060405160405180910390a380609760006101000a81548173ffffffffffffffffffffffffffffffffffffffff021916908373ffffffffffffffffffffffffffffffffffffffff16021790555050565b60007f7965db0b000000000000000000000000000000000000000000000000000000007bffffffffffffffffffffffffffffffffffffffffffffffffffffffff1916827bffffffffffffffffffffffffffffffffffffffffffffffffffffffff19161480611f9f5750611f9e82612b84565b5b9050919050565b60008073ffffffffffffffffffffffffffffffffffffffff166067600084815260200190815260200160002060009054906101000a900473ffffffffffffffffffffffffffffffffffffffff1673ffffffffffffffffffffffffffffffffffffffff1614159050919050565b600033905090565b816069600083815260200190815260200160002060006101000a81548173ffffffffffffffffffffffffffffffffffffffff021916908373ffffffffffffffffffffffffffffffffffffffff160217905550808273ffffffffffffffffffffffffffffffffffffffff1661208d83610e09565b73ffffffffffffffffffffffffffffffffffffffff167f8c5be1e5ebec7d5bd14f71427d1e84f3dd0314c0f7b2291e5b200ac8c7c3b92560405160405180910390a45050565b60006120de82611fa6565b61211d576040517f08c379a0000000000000000000000000000000000000000000000000000000008152600401612114906145fa565b60405180910390fd5b600061212883610e09565b90508073ffffffffffffffffffffffffffffffffffffffff168473ffffffffffffffffffffffffffffffffffffffff16148061219757508373ffffffffffffffffffffffffffffffffffffffff1661217f84610856565b73ffffffffffffffffffffffffffffffffffffffff16145b806121a857506121a78185611cec565b5b91505092915050565b8273ffffffffffffffffffffffffffffffffffffffff166121d182610e09565b73ffffffffffffffffffffffffffffffffffffffff1614612227576040517f08c379a000000000000000000000000000000000000000000000000000000000815260040161221e9061471a565b60405180910390fd5b600073ffffffffffffffffffffffffffffffffffffffff168273ffffffffffffffffffffffffffffffffffffffff161415612297576040517f08c379a000000000000000000000000000000000000000000000000000000000815260040161228e9061455a565b60405180910390fd5b6122a2838383612c66565b6122ad60008261201a565b6001606860008573ffffffffffffffffffffffffffffffffffffffff1673ffffffffffffffffffffffffffffffffffffffff16815260200190815260200160002060008282546122fd91906149ca565b925050819055506001606860008473ffffffffffffffffffffffffffffffffffffffff1673ffffffffffffffffffffffffffffffffffffffff168152602001908152602001600020600082825461235491906148e9565b92505081905550816067600083815260200190815260200160002060006101000a81548173ffffffffffffffffffffffffffffffffffffffff021916908373ffffffffffffffffffffffffffffffffffffffff160217905550808273ffffffffffffffffffffffffffffffffffffffff168473ffffffffffffffffffffffffffffffffffffffff167fddf252ad1be2c89b69c2b068fc378daa952ba7f163c4a11628f55a4df523b3ef60405160405180910390a4505050565b6124178282611585565b6124a65761243c8173ffffffffffffffffffffffffffffffffffffffff166014612c6b565b61244a8360001c6020612c6b565b60405160200161245b9291906143c1565b6040516020818303038152906040526040517f08c379a000000000000000000000000000000000000000000000000000000000815260040161249d9190614498565b60405180910390fd5b5050565b6124b48282611585565b61258757600160c9600084815260200190815260200160002060000160008373ffffffffffffffffffffffffffffffffffffffff1673ffffffffffffffffffffffffffffffffffffffff16815260200190815260200160002060006101000a81548160ff02191690831515021790555061252c612012565b73ffffffffffffffffffffffffffffffffffffffff168173ffffffffffffffffffffffffffffffffffffffff16837f2f8788117e7eff1d82e926ec794901d17c78024a50270940304540a733656f0d60405160405180910390a45b5050565b6125958282611585565b1561266957600060c9600084815260200190815260200160002060000160008373ffffffffffffffffffffffffffffffffffffffff1673ffffffffffffffffffffffffffffffffffffffff16815260200190815260200160002060006101000a81548160ff02191690831515021790555061260e612012565b73ffffffffffffffffffffffffffffffffffffffff168173ffffffffffffffffffffffffffffffffffffffff16837ff6391f5c32d9c69d2a47ea670b442974b53935d1edc7fd64eb21e047a839171b60405160405180910390a45b5050565b6000808290508051915050919050565b6001816000016000828254019250508190555050565b600081600001549050919050565b600073ffffffffffffffffffffffffffffffffffffffff168273ffffffffffffffffffffffffffffffffffffffff161415612711576040517f08c379a0000000000000000000000000000000000000000000000000000000008152600401612708906146ba565b60405180910390fd5b61271a81611fa6565b1561275a576040517f08c379a00000000000000000000000000000000000000000000000000000000081526004016127519061453a565b60405180910390fd5b61276660008383612c66565b6001606860008473ffffffffffffffffffffffffffffffffffffffff1673ffffffffffffffffffffffffffffffffffffffff16815260200190815260200160002060008282546127b691906148e9565b92505081905550816067600083815260200190815260200160002060006101000a81548173ffffffffffffffffffffffffffffffffffffffff021916908373ffffffffffffffffffffffffffffffffffffffff160217905550808273ffffffffffffffffffffffffffffffffffffffff16600073ffffffffffffffffffffffffffffffffffffffff167fddf252ad1be2c89b69c2b068fc378daa952ba7f163c4a11628f55a4df523b3ef60405160405180910390a45050565b600060019054906101000a900460ff1680612895575060008054906101000a900460ff16155b6128d4576040517f08c379a00000000000000000000000000000000000000000000000000000000081526004016128cb9061469a565b60405180910390fd5b60008060019054906101000a900460ff161590508015612924576001600060016101000a81548160ff02191690831515021790555060016000806101000a81548160ff0219169083151502179055505b61292c612f65565b61293461303e565b61293e8383613117565b801561295f5760008060016101000a81548160ff0219169083151502179055505b505050565b61296f8484846121b1565b61297b84848484613220565b6129ba576040517f08c379a00000000000000000000000000000000000000000000000000000000081526004016129b1906144da565b60405180910390fd5b50505050565b606060405180602001604052806000815250905090565b60606000821415612a1f576040518060400160405280600181526020017f30000000000000000000000000000000000000000000000000000000000000008152509050612b7f565b600082905060005b60008214612a51578080612a3a90614b1a565b915050600a82612a4a919061493f565b9150612a27565b60008167ffffffffffffffff811115612a93577f4e487b7100000000000000000000000000000000000000000000000000000000600052604160045260246000fd5b6040519080825280601f01601f191660200182016040528015612ac55781602001600182028036833780820191505090505b5090505b60008514612b7857600182612ade91906149ca565b9150600a85612aed9190614b63565b6030612af991906148e9565b60f81b818381518110612b35577f4e487b7100000000000000000000000000000000000000000000000000000000600052603260045260246000fd5b60200101907effffffffffffffffffffffffffffffffffffffffffffffffffffffffffffff1916908160001a905350600a85612b71919061493f565b9450612ac9565b8093505050505b919050565b60007f80ac58cd000000000000000000000000000000000000000000000000000000007bffffffffffffffffffffffffffffffffffffffffffffffffffffffff1916827bffffffffffffffffffffffffffffffffffffffffffffffffffffffff19161480612c4f57507f5b5e139f000000000000000000000000000000000000000000000000000000007bffffffffffffffffffffffffffffffffffffffffffffffffffffffff1916827bffffffffffffffffffffffffffffffffffffffffffffffffffffffff1916145b80612c5f5750612c5e826133b7565b5b9050919050565b505050565b606060006002836002612c7e9190614970565b612c8891906148e9565b67ffffffffffffffff811115612cc7577f4e487b7100000000000000000000000000000000000000000000000000000000600052604160045260246000fd5b6040519080825280601f01601f191660200182016040528015612cf95781602001600182028036833780820191505090505b5090507f300000000000000000000000000000000000000000000000000000000000000081600081518110612d57577f4e487b7100000000000000000000000000000000000000000000000000000000600052603260045260246000fd5b60200101907effffffffffffffffffffffffffffffffffffffffffffffffffffffffffffff1916908160001a9053507f780000000000000000000000000000000000000000000000000000000000000081600181518110612de1577f4e487b7100000000000000000000000000000000000000000000000000000000600052603260045260246000fd5b60200101907effffffffffffffffffffffffffffffffffffffffffffffffffffffffffffff1916908160001a90535060006001846002612e219190614970565b612e2b91906148e9565b90505b6001811115612f17577f3031323334353637383961626364656600000000000000000000000000000000600f861660108110612e93577f4e487b7100000000000000000000000000000000000000000000000000000000600052603260045260246000fd5b1a60f81b828281518110612ed0577f4e487b7100000000000000000000000000000000000000000000000000000000600052603260045260246000fd5b60200101907effffffffffffffffffffffffffffffffffffffffffffffffffffffffffffff1916908160001a905350600485901c945080612f1090614abe565b9050612e2e565b5060008414612f5b576040517f08c379a0000000000000000000000000000000000000000000000000000000008152600401612f52906144ba565b60405180910390fd5b8091505092915050565b600060019054906101000a900460ff1680612f8b575060008054906101000a900460ff16155b612fca576040517f08c379a0000000000000000000000000000000000000000000000000000000008152600401612fc19061469a565b60405180910390fd5b60008060019054906101000a900460ff16159050801561301a576001600060016101000a81548160ff02191690831515021790555060016000806101000a81548160ff0219169083151502179055505b801561303b5760008060016101000a81548160ff0219169083151502179055505b50565b600060019054906101000a900460ff1680613064575060008054906101000a900460ff16155b6130a3576040517f08c379a000000000000000000000000000000000000000000000000000000000815260040161309a9061469a565b60405180910390fd5b60008060019054906101000a900460ff1615905080156130f3576001600060016101000a81548160ff02191690831515021790555060016000806101000a81548160ff0219169083151502179055505b80156131145760008060016101000a81548160ff0219169083151502179055505b50565b600060019054906101000a900460ff168061313d575060008054906101000a900460ff16155b61317c576040517f08c379a00000000000000000000000000000000000000000000000000000000081526004016131739061469a565b60405180910390fd5b60008060019054906101000a900460ff1615905080156131cc576001600060016101000a81548160ff02191690831515021790555060016000806101000a81548160ff0219169083151502179055505b82606590805190602001906131e2929190613434565b5081606690805190602001906131f9929190613434565b50801561321b5760008060016101000a81548160ff0219169083151502179055505b505050565b60006132418473ffffffffffffffffffffffffffffffffffffffff16613421565b156133aa578373ffffffffffffffffffffffffffffffffffffffff1663150b7a0261326a612012565b8786866040518563ffffffff1660e01b815260040161328c9493929190614416565b602060405180830381600087803b1580156132a657600080fd5b505af19250505080156132d757506040513d601f19601f820116820180604052508101906132d4919061385a565b60015b61335a573d8060008114613307576040519150601f19603f3d011682016040523d82523d6000602084013e61330c565b606091505b50600081511415613352576040517f08c379a0000000000000000000000000000000000000000000000000000000008152600401613349906144da565b60405180910390fd5b805181602001fd5b63150b7a0260e01b7bffffffffffffffffffffffffffffffffffffffffffffffffffffffff1916817bffffffffffffffffffffffffffffffffffffffffffffffffffffffff1916149150506133af565b600190505b949350505050565b60007f01ffc9a7000000000000000000000000000000000000000000000000000000007bffffffffffffffffffffffffffffffffffffffffffffffffffffffff1916827bffffffffffffffffffffffffffffffffffffffffffffffffffffffff1916149050919050565b600080823b905060008111915050919050565b82805461344090614ae8565b90600052602060002090601f01602090048101928261346257600085556134a9565b82601f1061347b57805160ff19168380011785556134a9565b828001600101855582156134a9579182015b828111156134a857825182559160200191906001019061348d565b5b5090506134b691906134ba565b5090565b5b808211156134d35760008160009055506001016134bb565b5090565b60006134ea6134e584614846565b614815565b90508281526020810184848401111561350257600080fd5b61350d848285614a7c565b509392505050565b600061352861352384614876565b614815565b90508281526020810184848401111561354057600080fd5b61354b848285614a7c565b509392505050565b60008135905061356281614c61565b92915050565b60008135905061357781614c78565b92915050565b60008135905061358c81614c8f565b92915050565b6000813590506135a181614ca6565b92915050565b6000815190506135b681614ca6565b92915050565b600082601f8301126135cd57600080fd5b81356135dd8482602086016134d7565b91505092915050565b600082601f8301126135f757600080fd5b8135613607848260208601613515565b91505092915050565b60008135905061361f81614cbd565b92915050565b60006020828403121561363757600080fd5b600061364584828501613553565b91505092915050565b6000806040838503121561366157600080fd5b600061366f85828601613553565b925050602061368085828601613553565b9150509250929050565b60008060006060848603121561369f57600080fd5b60006136ad86828701613553565b93505060206136be86828701613553565b92505060406136cf86828701613610565b9150509250925092565b600080600080608085870312156136ef57600080fd5b60006136fd87828801613553565b945050602061370e87828801613553565b935050604061371f87828801613610565b925050606085013567ffffffffffffffff81111561373c57600080fd5b613748878288016135bc565b91505092959194509250565b6000806040838503121561376757600080fd5b600061377585828601613553565b925050602061378685828601613568565b9150509250929050565b600080604083850312156137a357600080fd5b60006137b185828601613553565b92505060206137c285828601613610565b9150509250929050565b6000602082840312156137de57600080fd5b60006137ec8482850161357d565b91505092915050565b6000806040838503121561380857600080fd5b60006138168582860161357d565b925050602061382785828601613553565b9150509250929050565b60006020828403121561384357600080fd5b600061385184828501613592565b91505092915050565b60006020828403121561386c57600080fd5b600061387a848285016135a7565b91505092915050565b60006020828403121561389557600080fd5b600082013567ffffffffffffffff8111156138af57600080fd5b6138bb848285016135e6565b91505092915050565b6000806000606084860312156138d957600080fd5b600084013567ffffffffffffffff8111156138f357600080fd5b6138ff868287016135e6565b935050602084013567ffffffffffffffff81111561391c57600080fd5b613928868287016135e6565b925050604084013567ffffffffffffffff81111561394557600080fd5b613951868287016135e6565b9150509250925092565b60006020828403121561396d57600080fd5b600061397b84828501613610565b91505092915050565b61398d816149fe565b82525050565b61399c81614a10565b82525050565b6139ab81614a1c565b82525050565b60006139bc826148a6565b6139c681856148bc565b93506139d6818560208601614a8b565b6139df81614c50565b840191505092915050565b60006139f5826148b1565b6139ff81856148cd565b9350613a0f818560208601614a8b565b613a1881614c50565b840191505092915050565b6000613a2e826148b1565b613a3881856148de565b9350613a48818560208601614a8b565b80840191505092915050565b6000613a616020836148cd565b91507f537472696e67733a20686578206c656e67746820696e73756666696369656e746000830152602082019050919050565b6000613aa16032836148cd565b91507f4552433732313a207472616e7366657220746f206e6f6e20455243373231526560008301527f63656976657220696d706c656d656e74657200000000000000000000000000006020830152604082019050919050565b6000613b076026836148cd565b91507f4f776e61626c653a206e6577206f776e657220697320746865207a65726f206160008301527f64647265737300000000000000000000000000000000000000000000000000006020830152604082019050919050565b6000613b6d6019836148cd565b91507f5265737472696374656420746f2056696577657220526f6c65000000000000006000830152602082019050919050565b6000613bad601c836148cd565b91507f4552433732313a20746f6b656e20616c7265616479206d696e746564000000006000830152602082019050919050565b6000613bed6024836148cd565b91507f4552433732313a207472616e7366657220746f20746865207a65726f2061646460008301527f72657373000000000000000000000000000000000000000000000000000000006020830152604082019050919050565b6000613c536019836148cd565b91507f4552433732313a20617070726f766520746f2063616c6c6572000000000000006000830152602082019050919050565b6000613c936014836148cd565b91507f5469746c65206d6178206c656e6774683a2036340000000000000000000000006000830152602082019050919050565b6000613cd36016836148cd565b91507f50616765206d6178206c656e6774683a203635353336000000000000000000006000830152602082019050919050565b6000613d136016836148cd565b91507f43616e6e6f74206d696e7420656d7074792070616765000000000000000000006000830152602082019050919050565b6000613d53602c836148cd565b91507f4552433732313a206f70657261746f7220717565727920666f72206e6f6e657860008301527f697374656e7420746f6b656e00000000000000000000000000000000000000006020830152604082019050919050565b6000613db96038836148cd565b91507f4552433732313a20617070726f76652063616c6c6572206973206e6f74206f7760008301527f6e6572206e6f7220617070726f76656420666f7220616c6c00000000000000006020830152604082019050919050565b6000613e1f602a836148cd565b91507f4552433732313a2062616c616e636520717565727920666f7220746865207a6560008301527f726f2061646472657373000000000000000000000000000000000000000000006020830152604082019050919050565b6000613e856029836148cd565b91507f4552433732313a206f776e657220717565727920666f72206e6f6e657869737460008301527f656e7420746f6b656e00000000000000000000000000000000000000000000006020830152604082019050919050565b6000613eeb6015836148cd565b91507f417574686f72206d6178206c656e6774683a20363400000000000000000000006000830152602082019050919050565b6000613f2b602e836148cd565b91507f496e697469616c697a61626c653a20636f6e747261637420697320616c72656160008301527f647920696e697469616c697a65640000000000000000000000000000000000006020830152604082019050919050565b6000613f916020836148cd565b91507f4552433732313a206d696e7420746f20746865207a65726f20616464726573736000830152602082019050919050565b6000613fd1602c836148cd565b91507f4552433732313a20617070726f76656420717565727920666f72206e6f6e657860008301527f697374656e7420746f6b656e00000000000000000000000000000000000000006020830152604082019050919050565b60006140376020836148cd565b91507f4f776e61626c653a2063616c6c6572206973206e6f7420746865206f776e65726000830152602082019050919050565b60006140776029836148cd565b91507f4552433732313a207472616e73666572206f6620746f6b656e2074686174206960008301527f73206e6f74206f776e00000000000000000000000000000000000000000000006020830152604082019050919050565b60006140dd602f836148cd565b91507f4552433732314d657461646174613a2055524920717565727920666f72206e6f60008301527f6e6578697374656e7420746f6b656e00000000000000000000000000000000006020830152604082019050919050565b60006141436021836148cd565b91507f4552433732313a20617070726f76616c20746f2063757272656e74206f776e6560008301527f72000000000000000000000000000000000000000000000000000000000000006020830152604082019050919050565b60006141a96031836148cd565b91507f4552433732313a207472616e736665722063616c6c6572206973206e6f74206f60008301527f776e6572206e6f7220617070726f7665640000000000000000000000000000006020830152604082019050919050565b600061420f602b836148cd565b91507f43616e6e6f74206d696e74204c6574746572207769746820616e20656d70747960008301527f20666972737420506167650000000000000000000000000000000000000000006020830152604082019050919050565b60006142756017836148de565b91507f416363657373436f6e74726f6c3a206163636f756e74200000000000000000006000830152601782019050919050565b60006142b5601c836148cd565b91507f43616e27742076696577206e6f6e2d6578697374656e742050616765000000006000830152602082019050919050565b60006142f56011836148de565b91507f206973206d697373696e6720726f6c65200000000000000000000000000000006000830152601182019050919050565b6000614335602f836148cd565b91507f416363657373436f6e74726f6c3a2063616e206f6e6c792072656e6f756e636560008301527f20726f6c657320666f722073656c6600000000000000000000000000000000006020830152604082019050919050565b61439781614a72565b82525050565b60006143a98285613a23565b91506143b58284613a23565b91508190509392505050565b60006143cc82614268565b91506143d88285613a23565b91506143e3826142e8565b91506143ef8284613a23565b91508190509392505050565b60006020820190506144106000830184613984565b92915050565b600060808201905061442b6000830187613984565b6144386020830186613984565b614445604083018561438e565b818103606083015261445781846139b1565b905095945050505050565b60006020820190506144776000830184613993565b92915050565b600060208201905061449260008301846139a2565b92915050565b600060208201905081810360008301526144b281846139ea565b905092915050565b600060208201905081810360008301526144d381613a54565b9050919050565b600060208201905081810360008301526144f381613a94565b9050919050565b6000602082019050818103600083015261451381613afa565b9050919050565b6000602082019050818103600083015261453381613b60565b9050919050565b6000602082019050818103600083015261455381613ba0565b9050919050565b6000602082019050818103600083015261457381613be0565b9050919050565b6000602082019050818103600083015261459381613c46565b9050919050565b600060208201905081810360008301526145b381613c86565b9050919050565b600060208201905081810360008301526145d381613cc6565b9050919050565b600060208201905081810360008301526145f381613d06565b9050919050565b6000602082019050818103600083015261461381613d46565b9050919050565b6000602082019050818103600083015261463381613dac565b9050919050565b6000602082019050818103600083015261465381613e12565b9050919050565b6000602082019050818103600083015261467381613e78565b9050919050565b6000602082019050818103600083015261469381613ede565b9050919050565b600060208201905081810360008301526146b381613f1e565b9050919050565b600060208201905081810360008301526146d381613f84565b9050919050565b600060208201905081810360008301526146f381613fc4565b9050919050565b600060208201905081810360008301526147138161402a565b9050919050565b600060208201905081810360008301526147338161406a565b9050919050565b60006020820190508181036000830152614753816140d0565b9050919050565b6000602082019050818103600083015261477381614136565b9050919050565b600060208201905081810360008301526147938161419c565b9050919050565b600060208201905081810360008301526147b381614202565b9050919050565b600060208201905081810360008301526147d3816142a8565b9050919050565b600060208201905081810360008301526147f381614328565b9050919050565b600060208201905061480f600083018461438e565b92915050565b6000604051905081810181811067ffffffffffffffff8211171561483c5761483b614c21565b5b8060405250919050565b600067ffffffffffffffff82111561486157614860614c21565b5b601f19601f8301169050602081019050919050565b600067ffffffffffffffff82111561489157614890614c21565b5b601f19601f8301169050602081019050919050565b600081519050919050565b600081519050919050565b600082825260208201905092915050565b600082825260208201905092915050565b600081905092915050565b60006148f482614a72565b91506148ff83614a72565b9250827fffffffffffffffffffffffffffffffffffffffffffffffffffffffffffffffff0382111561493457614933614b94565b5b828201905092915050565b600061494a82614a72565b915061495583614a72565b92508261496557614964614bc3565b5b828204905092915050565b600061497b82614a72565b915061498683614a72565b9250817fffffffffffffffffffffffffffffffffffffffffffffffffffffffffffffffff04831182151516156149bf576149be614b94565b5b828202905092915050565b60006149d582614a72565b91506149e083614a72565b9250828210156149f3576149f2614b94565b5b828203905092915050565b6000614a0982614a52565b9050919050565b60008115159050919050565b6000819050919050565b60007fffffffff0000000000000000000000000000000000000000000000000000000082169050919050565b600073ffffffffffffffffffffffffffffffffffffffff82169050919050565b6000819050919050565b82818337600083830152505050565b60005b83811015614aa9578082015181840152602081019050614a8e565b83811115614ab8576000848401525b50505050565b6000614ac982614a72565b91506000821415614add57614adc614b94565b5b600182039050919050565b60006002820490506001821680614b0057607f821691505b60208210811415614b1457614b13614bf2565b5b50919050565b6000614b2582614a72565b91507fffffffffffffffffffffffffffffffffffffffffffffffffffffffffffffffff821415614b5857614b57614b94565b5b600182019050919050565b6000614b6e82614a72565b9150614b7983614a72565b925082614b8957614b88614bc3565b5b828206905092915050565b7f4e487b7100000000000000000000000000000000000000000000000000000000600052601160045260246000fd5b7f4e487b7100000000000000000000000000000000000000000000000000000000600052601260045260246000fd5b7f4e487b7100000000000000000000000000000000000000000000000000000000600052602260045260246000fd5b7f4e487b7100000000000000000000000000000000000000000000000000000000600052604160045260246000fd5b6000601f19601f8301169050919050565b614c6a816149fe565b8114614c7557600080fd5b50565b614c8181614a10565b8114614c8c57600080fd5b50565b614c9881614a1c565b8114614ca357600080fd5b50565b614caf81614a26565b8114614cba57600080fd5b50565b614cc681614a72565b8114614cd157600080fd5b5056fea2646970667358221220207e76e94d57831490f4db6b58e7900d9c28d5254bbf23d8c79cabbf47e2b91564736f6c63430008000033",
  "immutableReferences": {},
  "source": "// SPDX-License-Identifier: MIT\n\npragma solidity ^0.8.0;\n\nimport \"@openzeppelin/contracts-upgradeable/token/ERC721/ERC721Upgradeable.sol\";\n\n// Access Control\nimport \"@openzeppelin/contracts-upgradeable/access/OwnableUpgradeable.sol\";\nimport \"@openzeppelin/contracts-upgradeable/access/AccessControlUpgradeable.sol\";\n\n// Safe Math\nimport \"@openzeppelin/contracts/utils/Counters.sol\";\nimport \"@openzeppelin/contracts/utils/math/SafeMath.sol\";\n\ncontract Letter is ERC721Upgradeable, OwnableUpgradeable, AccessControlUpgradeable {\n\n    // Letter vars\n    string private _title;\n    string private _author;\n    bool private _open;\n    string[] private _pages; // Each page is a Token\n\n    // Safely count Pages\n    using Counters for Counters.Counter;\n    Counters.Counter private _pageCounter;\n\n    // ---------------------------------------\n    // Initializer\n    function createLetter(string memory _titleMint, string memory _firstPageMint, string memory _authorMint)\n    public\n    initializer {\n\n        __ERC721_init(\"Letter\", \"LETT\");__ERC721_init(\"Letter\", \"LETT\");\n        \n        // Page Body is mandatory, max 65536 characters\n        require((getStringLength(_firstPageMint) != 0), \"Cannot mint Letter with an empty first Page\");\n        require((getStringLength(_firstPageMint) <= 65536), \"Page max length: 65536\");\n\n        // Page Title is optional, max 64 characters\n        if (getStringLength(_titleMint) != 0) {\n            require((getStringLength(_titleMint) <= 64), \"Title max length: 64\");\n            _title = _titleMint;\n        }\n        \n        // Page Author is optional, max 64 characters\n        if (getStringLength(_authorMint) != 0) {\n            require((getStringLength(_authorMint) <= 64), \"Author max length: 64\");\n            _author = _authorMint;\n        }\n\n        // Mint first Page\n        _mint(msg.sender, _pageCounter.current());\n\n        // Owner is Admin\n        grantRole(ADMIN_ROLE, msg.sender);\n\n        // Owner is Viewer\n        grantRole(VIEWER_ROLE, msg.sender);\n    }\n\n    // ---------------------------------------\n    // Access Control\n    bytes32 private constant ADMIN_ROLE = keccak256(\"ADMIN\");\n    bytes32 private constant VIEWER_ROLE = keccak256(\"VIEWER\");\n\n    modifier onlyViewer() {\n        if (!_open){\n            require (hasRole(VIEWER_ROLE, msg.sender), \"Restricted to Viewer Role\");\n        }\n        _;\n    }\n\n    /// @dev Add an account to the Admin role of _letterId. Restricted to Admins.\n    function addAdmin(address _account)\n    public\n    virtual\n    onlyRole(DEFAULT_ADMIN_ROLE) {\n        grantRole(ADMIN_ROLE, _account);\n    }\n\n    /// @dev Remove oneself from the admin role.\n    function renounceAdmin()\n    public\n    virtual {\n        renounceRole(ADMIN_ROLE, msg.sender);\n    }\n\n    /// @dev Add an account to the Viewer role. Restricted to Admins.\n    function addViewer(address _account)\n    public\n    virtual\n    onlyRole(ADMIN_ROLE) {\n        grantRole(VIEWER_ROLE, _account);\n    }\n\n    /// @dev Remove an account from the Viewer role. Restricted to admins.\n    function removeViewer(address _account)\n    public\n    virtual\n    onlyRole(ADMIN_ROLE) {\n        revokeRole(VIEWER_ROLE, _account);\n    }\n\n    /// @dev open Viewer Role (every account can View)\n    function openView()\n    public\n    virtual\n    onlyRole(ADMIN_ROLE) {\n        _open = true;\n    }\n\n    /// @dev close Viewer Role (only Viewer accounts can View)\n    function closeView()\n    public\n    virtual\n    onlyRole(ADMIN_ROLE) {\n        _open = false;\n    }\n\n    // ---------------------------------------\n    // View functions\n    \n    /// @dev view Title\n    function viewTitle()\n    public\n    view\n    onlyViewer\n    returns (string memory) {\n        return _title;\n    }\n\n    // @dev view Author\n    function viewAuthor()\n    public\n    view\n    onlyViewer\n    returns (string memory) { \n        return _author;\n    }\n\n    // @dev view Page\n    function viewPage(uint256 _pageN)\n    public\n    view\n    onlyViewer\n    returns (string memory) {\n        require ((_pageN <= _pageCounter.current()), \"Can't view non-existent Page\");\n        return _pages[_pageN];\n    }\n\n    // @dev view Page Count\n    function viewPageCount()\n    public\n    view\n    onlyViewer\n    returns (uint256) {\n        return _pageCounter.current();\n    }\n\n    // @dev is open?\n    function isOpen()\n    public\n    view\n    returns (bool) {\n        return _open;\n    }\n\n    // ---------------------------------------\n    // Utility functions\n\n    /// @dev count string length\n    function getStringLength(string memory _s) \n    private\n    pure\n    returns (uint) {\n        bytes memory bs = bytes(_s);\n        return bs.length;\n    }\n\n    // ---------------------------------------\n    // Mint new Page function\n\n    /// @dev mint new Page, append to Letter\n    function mintAppendPage(string memory _pageMint)\n    public\n    onlyOwner\n    returns (uint256)\n    {\n        // Page Body is mandatory, max 65536 characters\n        require((getStringLength(_pageMint) != 0), \"Cannot mint empty page\");\n        require((getStringLength(_pageMint) <= 65536), \"Page max length: 65536\");\n\n        // increment page counter\n        _pageCounter.increment();\n        uint256 newPageN = _pageCounter.current();\n\n        // Mint Page Token\n        _mint(msg.sender, newPageN);\n\n        // Return minted Page Number\n        return newPageN;\n    }\n\n    /// @dev override\n    function supportsInterface(bytes4 interfaceId) public view virtual override(AccessControlUpgradeable, ERC721Upgradeable) returns (bool) {\n        return\n            interfaceId == type(IAccessControlUpgradeable).interfaceId ||\n            interfaceId == type(IERC721Upgradeable).interfaceId ||\n            interfaceId == type(IERC721MetadataUpgradeable).interfaceId ||\n            super.supportsInterface(interfaceId);\n    }\n\n}",
  "sourcePath": "/home/bernardo/develop/letter/contracts/Letter.sol",
  "compiler": {
    "name": "solc",
    "version": "0.8.0+commit.c7dfd78e.Emscripten.clang"
  },
  "schemaVersion": "3.4.1",
  "updatedAt": "2021-06-15T21:53:49.863Z",
  "devdoc": {
    "kind": "dev",
    "methods": {
      "addAdmin(address)": {
        "details": "Add an account to the Admin role of _letterId. Restricted to Admins."
      },
      "addViewer(address)": {
        "details": "Add an account to the Viewer role. Restricted to Admins."
      },
      "approve(address,uint256)": {
        "details": "See {IERC721-approve}."
      },
      "balanceOf(address)": {
        "details": "See {IERC721-balanceOf}."
      },
      "closeView()": {
        "details": "close Viewer Role (only Viewer accounts can View)"
      },
      "getApproved(uint256)": {
        "details": "See {IERC721-getApproved}."
      },
      "getRoleAdmin(bytes32)": {
        "details": "Returns the admin role that controls `role`. See {grantRole} and {revokeRole}. To change a role's admin, use {_setRoleAdmin}."
      },
      "grantRole(bytes32,address)": {
        "details": "Grants `role` to `account`. If `account` had not been already granted `role`, emits a {RoleGranted} event. Requirements: - the caller must have ``role``'s admin role."
      },
      "hasRole(bytes32,address)": {
        "details": "Returns `true` if `account` has been granted `role`."
      },
      "isApprovedForAll(address,address)": {
        "details": "See {IERC721-isApprovedForAll}."
      },
      "mintAppendPage(string)": {
        "details": "mint new Page, append to Letter"
      },
      "name()": {
        "details": "See {IERC721Metadata-name}."
      },
      "openView()": {
        "details": "open Viewer Role (every account can View)"
      },
      "owner()": {
        "details": "Returns the address of the current owner."
      },
      "ownerOf(uint256)": {
        "details": "See {IERC721-ownerOf}."
      },
      "removeViewer(address)": {
        "details": "Remove an account from the Viewer role. Restricted to admins."
      },
      "renounceAdmin()": {
        "details": "Remove oneself from the admin role."
      },
      "renounceOwnership()": {
        "details": "Leaves the contract without owner. It will not be possible to call `onlyOwner` functions anymore. Can only be called by the current owner. NOTE: Renouncing ownership will leave the contract without an owner, thereby removing any functionality that is only available to the owner."
      },
      "renounceRole(bytes32,address)": {
        "details": "Revokes `role` from the calling account. Roles are often managed via {grantRole} and {revokeRole}: this function's purpose is to provide a mechanism for accounts to lose their privileges if they are compromised (such as when a trusted device is misplaced). If the calling account had been granted `role`, emits a {RoleRevoked} event. Requirements: - the caller must be `account`."
      },
      "revokeRole(bytes32,address)": {
        "details": "Revokes `role` from `account`. If `account` had been granted `role`, emits a {RoleRevoked} event. Requirements: - the caller must have ``role``'s admin role."
      },
      "safeTransferFrom(address,address,uint256)": {
        "details": "See {IERC721-safeTransferFrom}."
      },
      "safeTransferFrom(address,address,uint256,bytes)": {
        "details": "See {IERC721-safeTransferFrom}."
      },
      "setApprovalForAll(address,bool)": {
        "details": "See {IERC721-setApprovalForAll}."
      },
      "supportsInterface(bytes4)": {
        "details": "override"
      },
      "symbol()": {
        "details": "See {IERC721Metadata-symbol}."
      },
      "tokenURI(uint256)": {
        "details": "See {IERC721Metadata-tokenURI}."
      },
      "transferFrom(address,address,uint256)": {
        "details": "See {IERC721-transferFrom}."
      },
      "transferOwnership(address)": {
        "details": "Transfers ownership of the contract to a new account (`newOwner`). Can only be called by the current owner."
      },
      "viewTitle()": {
        "details": "view Title"
      }
    },
    "version": 1
  },
  "userdoc": {
    "kind": "user",
    "methods": {},
    "version": 1
  }
}