{
  "contractName": "Letter",
  "abi": [
    {
      "inputs": [],
      "stateMutability": "nonpayable",
      "type": "constructor"
    },
    {
      "anonymous": false,
      "inputs": [
        {
          "indexed": true,
          "internalType": "address",
          "name": "owner",
          "type": "address"
        },
        {
          "indexed": true,
          "internalType": "address",
          "name": "approved",
          "type": "address"
        },
        {
          "indexed": true,
          "internalType": "uint256",
          "name": "tokenId",
          "type": "uint256"
        }
      ],
      "name": "Approval",
      "type": "event"
    },
    {
      "anonymous": false,
      "inputs": [
        {
          "indexed": true,
          "internalType": "address",
          "name": "owner",
          "type": "address"
        },
        {
          "indexed": true,
          "internalType": "address",
          "name": "operator",
          "type": "address"
        },
        {
          "indexed": false,
          "internalType": "bool",
          "name": "approved",
          "type": "bool"
        }
      ],
      "name": "ApprovalForAll",
      "type": "event"
    },
    {
      "anonymous": false,
      "inputs": [
        {
          "indexed": true,
          "internalType": "address",
          "name": "from",
          "type": "address"
        },
        {
          "indexed": true,
          "internalType": "address",
          "name": "to",
          "type": "address"
        },
        {
          "indexed": true,
          "internalType": "uint256",
          "name": "tokenId",
          "type": "uint256"
        }
      ],
      "name": "Transfer",
      "type": "event"
    },
    {
      "inputs": [
        {
          "internalType": "address",
          "name": "to",
          "type": "address"
        },
        {
          "internalType": "uint256",
          "name": "tokenId",
          "type": "uint256"
        }
      ],
      "name": "approve",
      "outputs": [],
      "stateMutability": "nonpayable",
      "type": "function"
    },
    {
      "inputs": [
        {
          "internalType": "address",
          "name": "owner",
          "type": "address"
        }
      ],
      "name": "balanceOf",
      "outputs": [
        {
          "internalType": "uint256",
          "name": "",
          "type": "uint256"
        }
      ],
      "stateMutability": "view",
      "type": "function",
      "constant": true
    },
    {
      "inputs": [
        {
          "internalType": "uint256",
          "name": "tokenId",
          "type": "uint256"
        }
      ],
      "name": "getApproved",
      "outputs": [
        {
          "internalType": "address",
          "name": "",
          "type": "address"
        }
      ],
      "stateMutability": "view",
      "type": "function",
      "constant": true
    },
    {
      "inputs": [
        {
          "internalType": "address",
          "name": "owner",
          "type": "address"
        },
        {
          "internalType": "address",
          "name": "operator",
          "type": "address"
        }
      ],
      "name": "isApprovedForAll",
      "outputs": [
        {
          "internalType": "bool",
          "name": "",
          "type": "bool"
        }
      ],
      "stateMutability": "view",
      "type": "function",
      "constant": true
    },
    {
      "inputs": [],
      "name": "name",
      "outputs": [
        {
          "internalType": "string",
          "name": "",
          "type": "string"
        }
      ],
      "stateMutability": "view",
      "type": "function",
      "constant": true
    },
    {
      "inputs": [
        {
          "internalType": "uint256",
          "name": "tokenId",
          "type": "uint256"
        }
      ],
      "name": "ownerOf",
      "outputs": [
        {
          "internalType": "address",
          "name": "",
          "type": "address"
        }
      ],
      "stateMutability": "view",
      "type": "function",
      "constant": true
    },
    {
      "inputs": [
        {
          "internalType": "address",
          "name": "from",
          "type": "address"
        },
        {
          "internalType": "address",
          "name": "to",
          "type": "address"
        },
        {
          "internalType": "uint256",
          "name": "tokenId",
          "type": "uint256"
        }
      ],
      "name": "safeTransferFrom",
      "outputs": [],
      "stateMutability": "nonpayable",
      "type": "function"
    },
    {
      "inputs": [
        {
          "internalType": "address",
          "name": "from",
          "type": "address"
        },
        {
          "internalType": "address",
          "name": "to",
          "type": "address"
        },
        {
          "internalType": "uint256",
          "name": "tokenId",
          "type": "uint256"
        },
        {
          "internalType": "bytes",
          "name": "_data",
          "type": "bytes"
        }
      ],
      "name": "safeTransferFrom",
      "outputs": [],
      "stateMutability": "nonpayable",
      "type": "function"
    },
    {
      "inputs": [
        {
          "internalType": "address",
          "name": "operator",
          "type": "address"
        },
        {
          "internalType": "bool",
          "name": "approved",
          "type": "bool"
        }
      ],
      "name": "setApprovalForAll",
      "outputs": [],
      "stateMutability": "nonpayable",
      "type": "function"
    },
    {
      "inputs": [
        {
          "internalType": "bytes4",
          "name": "interfaceId",
          "type": "bytes4"
        }
      ],
      "name": "supportsInterface",
      "outputs": [
        {
          "internalType": "bool",
          "name": "",
          "type": "bool"
        }
      ],
      "stateMutability": "view",
      "type": "function",
      "constant": true
    },
    {
      "inputs": [],
      "name": "symbol",
      "outputs": [
        {
          "internalType": "string",
          "name": "",
          "type": "string"
        }
      ],
      "stateMutability": "view",
      "type": "function",
      "constant": true
    },
    {
      "inputs": [
        {
          "internalType": "address",
          "name": "from",
          "type": "address"
        },
        {
          "internalType": "address",
          "name": "to",
          "type": "address"
        },
        {
          "internalType": "uint256",
          "name": "tokenId",
          "type": "uint256"
        }
      ],
      "name": "transferFrom",
      "outputs": [],
      "stateMutability": "nonpayable",
      "type": "function"
    },
    {
      "inputs": [
        {
          "internalType": "string",
          "name": "_ipfsCID",
          "type": "string"
        }
      ],
      "name": "createPage",
      "outputs": [
        {
          "internalType": "uint256",
          "name": "",
          "type": "uint256"
        }
      ],
      "stateMutability": "nonpayable",
      "type": "function"
    },
    {
      "inputs": [
        {
          "internalType": "uint256",
          "name": "tokenId",
          "type": "uint256"
        }
      ],
      "name": "tokenURI",
      "outputs": [
        {
          "internalType": "string",
          "name": "",
          "type": "string"
        }
      ],
      "stateMutability": "view",
      "type": "function",
      "constant": true
    }
  ],
  "bytecode": "0x60806040523480156200001157600080fd5b506040518060400160405280600681526020017f4c657474657200000000000000000000000000000000000000000000000000008152506040518060400160405280600481526020017f4c45545400000000000000000000000000000000000000000000000000000000815250816000908051906020019062000096929190620000b8565b508060019080519060200190620000af929190620000b8565b505050620001cd565b828054620000c69062000168565b90600052602060002090601f016020900481019282620000ea576000855562000136565b82601f106200010557805160ff191683800117855562000136565b8280016001018555821562000136579182015b828111156200013557825182559160200191906001019062000118565b5b50905062000145919062000149565b5090565b5b80821115620001645760008160009055506001016200014a565b5090565b600060028204905060018216806200018157607f821691505b602082108114156200019857620001976200019e565b5b50919050565b7f4e487b7100000000000000000000000000000000000000000000000000000000600052602260045260246000fd5b61250580620001dd6000396000f3fe608060405234801561001057600080fd5b50600436106100ea5760003560e01c806370a082311161008c578063b88d4fde11610066578063b88d4fde1461025b578063c87b56dd14610277578063cec0e870146102a7578063e985e9c5146102d7576100ea565b806370a08231146101f157806395d89b4114610221578063a22cb4651461023f576100ea565b8063095ea7b3116100c8578063095ea7b31461016d57806323b872dd1461018957806342842e0e146101a55780636352211e146101c1576100ea565b806301ffc9a7146100ef57806306fdde031461011f578063081812fc1461013d575b600080fd5b6101096004803603810190610104919061189e565b610307565b6040516101169190611f82565b60405180910390f35b6101276103e9565b6040516101349190611f9d565b60405180910390f35b61015760048036038101906101529190611931565b61047b565b6040516101649190611f1b565b60405180910390f35b61018760048036038101906101829190611862565b610500565b005b6101a3600480360381019061019e919061175c565b610618565b005b6101bf60048036038101906101ba919061175c565b610678565b005b6101db60048036038101906101d69190611931565b610698565b6040516101e89190611f1b565b60405180910390f35b61020b600480360381019061020691906116f7565b61074a565b604051610218919061217f565b60405180910390f35b610229610802565b6040516102369190611f9d565b60405180910390f35b61025960048036038101906102549190611826565b610894565b005b610275600480360381019061027091906117ab565b610a15565b005b610291600480360381019061028c9190611931565b610a77565b60405161029e9190611f9d565b60405180910390f35b6102c160048036038101906102bc91906118f0565b610b64565b6040516102ce919061217f565b60405180910390f35b6102f160048036038101906102ec9190611720565b610bb9565b6040516102fe9190611f82565b60405180910390f35b60007f80ac58cd000000000000000000000000000000000000000000000000000000007bffffffffffffffffffffffffffffffffffffffffffffffffffffffff1916827bffffffffffffffffffffffffffffffffffffffffffffffffffffffff191614806103d257507f5b5e139f000000000000000000000000000000000000000000000000000000007bffffffffffffffffffffffffffffffffffffffffffffffffffffffff1916827bffffffffffffffffffffffffffffffffffffffffffffffffffffffff1916145b806103e257506103e182610c4d565b5b9050919050565b6060600080546103f8906123a3565b80601f0160208091040260200160405190810160405280929190818152602001828054610424906123a3565b80156104715780601f1061044657610100808354040283529160200191610471565b820191906000526020600020905b81548152906001019060200180831161045457829003601f168201915b5050505050905090565b600061048682610cb7565b6104c5576040517f08c379a00000000000000000000000000000000000000000000000000000000081526004016104bc906120df565b60405180910390fd5b6004600083815260200190815260200160002060009054906101000a900473ffffffffffffffffffffffffffffffffffffffff169050919050565b600061050b82610698565b90508073ffffffffffffffffffffffffffffffffffffffff168373ffffffffffffffffffffffffffffffffffffffff16141561057c576040517f08c379a00000000000000000000000000000000000000000000000000000000081526004016105739061213f565b60405180910390fd5b8073ffffffffffffffffffffffffffffffffffffffff1661059b610d23565b73ffffffffffffffffffffffffffffffffffffffff1614806105ca57506105c9816105c4610d23565b610bb9565b5b610609576040517f08c379a00000000000000000000000000000000000000000000000000000000081526004016106009061205f565b60405180910390fd5b6106138383610d2b565b505050565b610629610623610d23565b82610de4565b610668576040517f08c379a000000000000000000000000000000000000000000000000000000000815260040161065f9061215f565b60405180910390fd5b610673838383610ec2565b505050565b61069383838360405180602001604052806000815250610a15565b505050565b6000806002600084815260200190815260200160002060009054906101000a900473ffffffffffffffffffffffffffffffffffffffff169050600073ffffffffffffffffffffffffffffffffffffffff168173ffffffffffffffffffffffffffffffffffffffff161415610741576040517f08c379a00000000000000000000000000000000000000000000000000000000081526004016107389061209f565b60405180910390fd5b80915050919050565b60008073ffffffffffffffffffffffffffffffffffffffff168273ffffffffffffffffffffffffffffffffffffffff1614156107bb576040517f08c379a00000000000000000000000000000000000000000000000000000000081526004016107b29061207f565b60405180910390fd5b600360008373ffffffffffffffffffffffffffffffffffffffff1673ffffffffffffffffffffffffffffffffffffffff168152602001908152602001600020549050919050565b606060018054610811906123a3565b80601f016020809104026020016040519081016040528092919081815260200182805461083d906123a3565b801561088a5780601f1061085f5761010080835404028352916020019161088a565b820191906000526020600020905b81548152906001019060200180831161086d57829003601f168201915b5050505050905090565b61089c610d23565b73ffffffffffffffffffffffffffffffffffffffff168273ffffffffffffffffffffffffffffffffffffffff16141561090a576040517f08c379a00000000000000000000000000000000000000000000000000000000081526004016109019061201f565b60405180910390fd5b8060056000610917610d23565b73ffffffffffffffffffffffffffffffffffffffff1673ffffffffffffffffffffffffffffffffffffffff16815260200190815260200160002060008473ffffffffffffffffffffffffffffffffffffffff1673ffffffffffffffffffffffffffffffffffffffff16815260200190815260200160002060006101000a81548160ff0219169083151502179055508173ffffffffffffffffffffffffffffffffffffffff166109c4610d23565b73ffffffffffffffffffffffffffffffffffffffff167f17307eab39ab6107e8899845ad3d59bd9653f200f220920489ca2b5937696c3183604051610a099190611f82565b60405180910390a35050565b610a26610a20610d23565b83610de4565b610a65576040517f08c379a0000000000000000000000000000000000000000000000000000000008152600401610a5c9061215f565b60405180910390fd5b610a718484848461111e565b50505050565b6060610a8282610cb7565b610ac1576040517f08c379a0000000000000000000000000000000000000000000000000000000008152600401610ab89061211f565b60405180910390fd5b600760008381526020019081526020016000208054610adf906123a3565b80601f0160208091040260200160405190810160405280929190818152602001828054610b0b906123a3565b8015610b585780601f10610b2d57610100808354040283529160200191610b58565b820191906000526020600020905b815481529060010190602001808311610b3b57829003601f168201915b50505050509050919050565b6000610b70600661117a565b6000610b7c6006611190565b905082600760008381526020019081526020016000209080519060200190610ba592919061151b565b50610bb0338261119e565b80915050919050565b6000600560008473ffffffffffffffffffffffffffffffffffffffff1673ffffffffffffffffffffffffffffffffffffffff16815260200190815260200160002060008373ffffffffffffffffffffffffffffffffffffffff1673ffffffffffffffffffffffffffffffffffffffff16815260200190815260200160002060009054906101000a900460ff16905092915050565b60007f01ffc9a7000000000000000000000000000000000000000000000000000000007bffffffffffffffffffffffffffffffffffffffffffffffffffffffff1916827bffffffffffffffffffffffffffffffffffffffffffffffffffffffff1916149050919050565b60008073ffffffffffffffffffffffffffffffffffffffff166002600084815260200190815260200160002060009054906101000a900473ffffffffffffffffffffffffffffffffffffffff1673ffffffffffffffffffffffffffffffffffffffff1614159050919050565b600033905090565b816004600083815260200190815260200160002060006101000a81548173ffffffffffffffffffffffffffffffffffffffff021916908373ffffffffffffffffffffffffffffffffffffffff160217905550808273ffffffffffffffffffffffffffffffffffffffff16610d9e83610698565b73ffffffffffffffffffffffffffffffffffffffff167f8c5be1e5ebec7d5bd14f71427d1e84f3dd0314c0f7b2291e5b200ac8c7c3b92560405160405180910390a45050565b6000610def82610cb7565b610e2e576040517f08c379a0000000000000000000000000000000000000000000000000000000008152600401610e259061203f565b60405180910390fd5b6000610e3983610698565b90508073ffffffffffffffffffffffffffffffffffffffff168473ffffffffffffffffffffffffffffffffffffffff161480610ea857508373ffffffffffffffffffffffffffffffffffffffff16610e908461047b565b73ffffffffffffffffffffffffffffffffffffffff16145b80610eb95750610eb88185610bb9565b5b91505092915050565b8273ffffffffffffffffffffffffffffffffffffffff16610ee282610698565b73ffffffffffffffffffffffffffffffffffffffff1614610f38576040517f08c379a0000000000000000000000000000000000000000000000000000000008152600401610f2f906120ff565b60405180910390fd5b600073ffffffffffffffffffffffffffffffffffffffff168273ffffffffffffffffffffffffffffffffffffffff161415610fa8576040517f08c379a0000000000000000000000000000000000000000000000000000000008152600401610f9f90611fff565b60405180910390fd5b610fb383838361136c565b610fbe600082610d2b565b6001600360008573ffffffffffffffffffffffffffffffffffffffff1673ffffffffffffffffffffffffffffffffffffffff168152602001908152602001600020600082825461100e91906122b9565b925050819055506001600360008473ffffffffffffffffffffffffffffffffffffffff1673ffffffffffffffffffffffffffffffffffffffff16815260200190815260200160002060008282546110659190612263565b92505081905550816002600083815260200190815260200160002060006101000a81548173ffffffffffffffffffffffffffffffffffffffff021916908373ffffffffffffffffffffffffffffffffffffffff160217905550808273ffffffffffffffffffffffffffffffffffffffff168473ffffffffffffffffffffffffffffffffffffffff167fddf252ad1be2c89b69c2b068fc378daa952ba7f163c4a11628f55a4df523b3ef60405160405180910390a4505050565b611129848484610ec2565b61113584848484611371565b611174576040517f08c379a000000000000000000000000000000000000000000000000000000000815260040161116b90611fbf565b60405180910390fd5b50505050565b6001816000016000828254019250508190555050565b600081600001549050919050565b600073ffffffffffffffffffffffffffffffffffffffff168273ffffffffffffffffffffffffffffffffffffffff16141561120e576040517f08c379a0000000000000000000000000000000000000000000000000000000008152600401611205906120bf565b60405180910390fd5b61121781610cb7565b15611257576040517f08c379a000000000000000000000000000000000000000000000000000000000815260040161124e90611fdf565b60405180910390fd5b6112636000838361136c565b6001600360008473ffffffffffffffffffffffffffffffffffffffff1673ffffffffffffffffffffffffffffffffffffffff16815260200190815260200160002060008282546112b39190612263565b92505081905550816002600083815260200190815260200160002060006101000a81548173ffffffffffffffffffffffffffffffffffffffff021916908373ffffffffffffffffffffffffffffffffffffffff160217905550808273ffffffffffffffffffffffffffffffffffffffff16600073ffffffffffffffffffffffffffffffffffffffff167fddf252ad1be2c89b69c2b068fc378daa952ba7f163c4a11628f55a4df523b3ef60405160405180910390a45050565b505050565b60006113928473ffffffffffffffffffffffffffffffffffffffff16611508565b156114fb578373ffffffffffffffffffffffffffffffffffffffff1663150b7a026113bb610d23565b8786866040518563ffffffff1660e01b81526004016113dd9493929190611f36565b602060405180830381600087803b1580156113f757600080fd5b505af192505050801561142857506040513d601f19601f8201168201806040525081019061142591906118c7565b60015b6114ab573d8060008114611458576040519150601f19603f3d011682016040523d82523d6000602084013e61145d565b606091505b506000815114156114a3576040517f08c379a000000000000000000000000000000000000000000000000000000000815260040161149a90611fbf565b60405180910390fd5b805181602001fd5b63150b7a0260e01b7bffffffffffffffffffffffffffffffffffffffffffffffffffffffff1916817bffffffffffffffffffffffffffffffffffffffffffffffffffffffff191614915050611500565b600190505b949350505050565b600080823b905060008111915050919050565b828054611527906123a3565b90600052602060002090601f0160209004810192826115495760008555611590565b82601f1061156257805160ff1916838001178555611590565b82800160010185558215611590579182015b8281111561158f578251825591602001919060010190611574565b5b50905061159d91906115a1565b5090565b5b808211156115ba5760008160009055506001016115a2565b5090565b60006115d16115cc846121cb565b61219a565b9050828152602081018484840111156115e957600080fd5b6115f4848285612361565b509392505050565b600061160f61160a846121fb565b61219a565b90508281526020810184848401111561162757600080fd5b611632848285612361565b509392505050565b60008135905061164981612473565b92915050565b60008135905061165e8161248a565b92915050565b600081359050611673816124a1565b92915050565b600081519050611688816124a1565b92915050565b600082601f83011261169f57600080fd5b81356116af8482602086016115be565b91505092915050565b600082601f8301126116c957600080fd5b81356116d98482602086016115fc565b91505092915050565b6000813590506116f1816124b8565b92915050565b60006020828403121561170957600080fd5b60006117178482850161163a565b91505092915050565b6000806040838503121561173357600080fd5b60006117418582860161163a565b92505060206117528582860161163a565b9150509250929050565b60008060006060848603121561177157600080fd5b600061177f8682870161163a565b93505060206117908682870161163a565b92505060406117a1868287016116e2565b9150509250925092565b600080600080608085870312156117c157600080fd5b60006117cf8782880161163a565b94505060206117e08782880161163a565b93505060406117f1878288016116e2565b925050606085013567ffffffffffffffff81111561180e57600080fd5b61181a8782880161168e565b91505092959194509250565b6000806040838503121561183957600080fd5b60006118478582860161163a565b92505060206118588582860161164f565b9150509250929050565b6000806040838503121561187557600080fd5b60006118838582860161163a565b9250506020611894858286016116e2565b9150509250929050565b6000602082840312156118b057600080fd5b60006118be84828501611664565b91505092915050565b6000602082840312156118d957600080fd5b60006118e784828501611679565b91505092915050565b60006020828403121561190257600080fd5b600082013567ffffffffffffffff81111561191c57600080fd5b611928848285016116b8565b91505092915050565b60006020828403121561194357600080fd5b6000611951848285016116e2565b91505092915050565b611963816122ed565b82525050565b611972816122ff565b82525050565b60006119838261222b565b61198d8185612241565b935061199d818560208601612370565b6119a681612462565b840191505092915050565b60006119bc82612236565b6119c68185612252565b93506119d6818560208601612370565b6119df81612462565b840191505092915050565b60006119f7603283612252565b91507f4552433732313a207472616e7366657220746f206e6f6e20455243373231526560008301527f63656976657220696d706c656d656e74657200000000000000000000000000006020830152604082019050919050565b6000611a5d601c83612252565b91507f4552433732313a20746f6b656e20616c7265616479206d696e746564000000006000830152602082019050919050565b6000611a9d602483612252565b91507f4552433732313a207472616e7366657220746f20746865207a65726f2061646460008301527f72657373000000000000000000000000000000000000000000000000000000006020830152604082019050919050565b6000611b03601983612252565b91507f4552433732313a20617070726f766520746f2063616c6c6572000000000000006000830152602082019050919050565b6000611b43602c83612252565b91507f4552433732313a206f70657261746f7220717565727920666f72206e6f6e657860008301527f697374656e7420746f6b656e00000000000000000000000000000000000000006020830152604082019050919050565b6000611ba9603883612252565b91507f4552433732313a20617070726f76652063616c6c6572206973206e6f74206f7760008301527f6e6572206e6f7220617070726f76656420666f7220616c6c00000000000000006020830152604082019050919050565b6000611c0f602a83612252565b91507f4552433732313a2062616c616e636520717565727920666f7220746865207a6560008301527f726f2061646472657373000000000000000000000000000000000000000000006020830152604082019050919050565b6000611c75602983612252565b91507f4552433732313a206f776e657220717565727920666f72206e6f6e657869737460008301527f656e7420746f6b656e00000000000000000000000000000000000000000000006020830152604082019050919050565b6000611cdb602083612252565b91507f4552433732313a206d696e7420746f20746865207a65726f20616464726573736000830152602082019050919050565b6000611d1b602c83612252565b91507f4552433732313a20617070726f76656420717565727920666f72206e6f6e657860008301527f697374656e7420746f6b656e00000000000000000000000000000000000000006020830152604082019050919050565b6000611d81602983612252565b91507f4552433732313a207472616e73666572206f6620746f6b656e2074686174206960008301527f73206e6f74206f776e00000000000000000000000000000000000000000000006020830152604082019050919050565b6000611de7602f83612252565b91507f4552433732314d657461646174613a2055524920717565727920666f72206e6f60008301527f6e6578697374656e7420746f6b656e00000000000000000000000000000000006020830152604082019050919050565b6000611e4d602183612252565b91507f4552433732313a20617070726f76616c20746f2063757272656e74206f776e6560008301527f72000000000000000000000000000000000000000000000000000000000000006020830152604082019050919050565b6000611eb3603183612252565b91507f4552433732313a207472616e736665722063616c6c6572206973206e6f74206f60008301527f776e6572206e6f7220617070726f7665640000000000000000000000000000006020830152604082019050919050565b611f1581612357565b82525050565b6000602082019050611f30600083018461195a565b92915050565b6000608082019050611f4b600083018761195a565b611f58602083018661195a565b611f656040830185611f0c565b8181036060830152611f778184611978565b905095945050505050565b6000602082019050611f976000830184611969565b92915050565b60006020820190508181036000830152611fb781846119b1565b905092915050565b60006020820190508181036000830152611fd8816119ea565b9050919050565b60006020820190508181036000830152611ff881611a50565b9050919050565b6000602082019050818103600083015261201881611a90565b9050919050565b6000602082019050818103600083015261203881611af6565b9050919050565b6000602082019050818103600083015261205881611b36565b9050919050565b6000602082019050818103600083015261207881611b9c565b9050919050565b6000602082019050818103600083015261209881611c02565b9050919050565b600060208201905081810360008301526120b881611c68565b9050919050565b600060208201905081810360008301526120d881611cce565b9050919050565b600060208201905081810360008301526120f881611d0e565b9050919050565b6000602082019050818103600083015261211881611d74565b9050919050565b6000602082019050818103600083015261213881611dda565b9050919050565b6000602082019050818103600083015261215881611e40565b9050919050565b6000602082019050818103600083015261217881611ea6565b9050919050565b60006020820190506121946000830184611f0c565b92915050565b6000604051905081810181811067ffffffffffffffff821117156121c1576121c0612433565b5b8060405250919050565b600067ffffffffffffffff8211156121e6576121e5612433565b5b601f19601f8301169050602081019050919050565b600067ffffffffffffffff82111561221657612215612433565b5b601f19601f8301169050602081019050919050565b600081519050919050565b600081519050919050565b600082825260208201905092915050565b600082825260208201905092915050565b600061226e82612357565b915061227983612357565b9250827fffffffffffffffffffffffffffffffffffffffffffffffffffffffffffffffff038211156122ae576122ad6123d5565b5b828201905092915050565b60006122c482612357565b91506122cf83612357565b9250828210156122e2576122e16123d5565b5b828203905092915050565b60006122f882612337565b9050919050565b60008115159050919050565b60007fffffffff0000000000000000000000000000000000000000000000000000000082169050919050565b600073ffffffffffffffffffffffffffffffffffffffff82169050919050565b6000819050919050565b82818337600083830152505050565b60005b8381101561238e578082015181840152602081019050612373565b8381111561239d576000848401525b50505050565b600060028204905060018216806123bb57607f821691505b602082108114156123cf576123ce612404565b5b50919050565b7f4e487b7100000000000000000000000000000000000000000000000000000000600052601160045260246000fd5b7f4e487b7100000000000000000000000000000000000000000000000000000000600052602260045260246000fd5b7f4e487b7100000000000000000000000000000000000000000000000000000000600052604160045260246000fd5b6000601f19601f8301169050919050565b61247c816122ed565b811461248757600080fd5b50565b612493816122ff565b811461249e57600080fd5b50565b6124aa8161230b565b81146124b557600080fd5b50565b6124c181612357565b81146124cc57600080fd5b5056fea26469706673582212201d27211b6e5b609cd0c79d5b19d6fd947ec61e2a1ad17cc597a66543016c611164736f6c63430008000033",
  "immutableReferences": {},
  "source": "// SPDX-License-Identifier: MIT\n\npragma solidity ^0.8.0;\n\nimport \"@openzeppelin/contracts/token/ERC721/ERC721.sol\";\nimport \"@openzeppelin/contracts/utils/Counters.sol\";\n\ncontract Letter is ERC721{\n\n  // increment the identifiers for the tokens we mint.\n  using Counters for Counters.Counter;\n  Counters.Counter private _tokenIds;\n\n  // mapping for the IPFS hashes associated with tokens\n  mapping (uint256 => string) private _tokenURIs;\n\n  constructor() public ERC721(\"Letter\", \"LETT\") {}\n\n  // add new URI to tokenURI mapping\n  function _setTokenURI(uint256 tokenId, string memory _tokenURI)\n  internal\n  virtual {\n    require(_exists(tokenId), \"ERC721Metadata: URI set of nonexistent token\");\n    _tokenURIs[tokenId] = _tokenURI;\n  }\n\n  // create a new Page\n  function createPage(string memory _ipfsCID)\n  public\n  returns (uint256)\n  {\n    // ToDo: check _ipfsCID formatting\n\n    _tokenIds.increment();\n    uint256 newTokenId = _tokenIds.current();\n    _tokenURIs[newTokenId] = _ipfsCID;\n\n    _mint(msg.sender, newTokenId);\n\n    return newTokenId;\n  }\n\n  // read tokenURI\n  function tokenURI(uint256 tokenId) public\n  view\n  virtual\n  override\n  returns (string memory) {\n    require(_exists(tokenId), \"ERC721Metadata: URI query for nonexistent token\");\n\n    return _tokenURIs[tokenId];\n  }\n}\n",
  "sourcePath": "/home/bernardo/develop/letter/contracts/Letter.sol",
  "compiler": {
    "name": "solc",
    "version": "0.8.0+commit.c7dfd78e.Emscripten.clang"
  },
  "schemaVersion": "3.4.1",
  "updatedAt": "2021-06-10T23:55:54.106Z",
  "networkType": "ethereum",
  "devdoc": {
    "kind": "dev",
    "methods": {
      "approve(address,uint256)": {
        "details": "See {IERC721-approve}."
      },
      "balanceOf(address)": {
        "details": "See {IERC721-balanceOf}."
      },
      "getApproved(uint256)": {
        "details": "See {IERC721-getApproved}."
      },
      "isApprovedForAll(address,address)": {
        "details": "See {IERC721-isApprovedForAll}."
      },
      "name()": {
        "details": "See {IERC721Metadata-name}."
      },
      "ownerOf(uint256)": {
        "details": "See {IERC721-ownerOf}."
      },
      "safeTransferFrom(address,address,uint256)": {
        "details": "See {IERC721-safeTransferFrom}."
      },
      "safeTransferFrom(address,address,uint256,bytes)": {
        "details": "See {IERC721-safeTransferFrom}."
      },
      "setApprovalForAll(address,bool)": {
        "details": "See {IERC721-setApprovalForAll}."
      },
      "supportsInterface(bytes4)": {
        "details": "See {IERC165-supportsInterface}."
      },
      "symbol()": {
        "details": "See {IERC721Metadata-symbol}."
      },
      "tokenURI(uint256)": {
        "details": "See {IERC721Metadata-tokenURI}."
      },
      "transferFrom(address,address,uint256)": {
        "details": "See {IERC721-transferFrom}."
      }
    },
    "version": 1
  },
  "userdoc": {
    "kind": "user",
    "methods": {},
    "version": 1
  }
}