{
  "contractName": "Letter",
  "abi": [
    {
      "inputs": [],
      "stateMutability": "nonpayable",
      "type": "constructor"
    },
    {
      "anonymous": false,
      "inputs": [
        {
          "indexed": true,
          "internalType": "address",
          "name": "owner",
          "type": "address"
        },
        {
          "indexed": true,
          "internalType": "address",
          "name": "approved",
          "type": "address"
        },
        {
          "indexed": true,
          "internalType": "uint256",
          "name": "tokenId",
          "type": "uint256"
        }
      ],
      "name": "Approval",
      "type": "event"
    },
    {
      "anonymous": false,
      "inputs": [
        {
          "indexed": true,
          "internalType": "address",
          "name": "owner",
          "type": "address"
        },
        {
          "indexed": true,
          "internalType": "address",
          "name": "operator",
          "type": "address"
        },
        {
          "indexed": false,
          "internalType": "bool",
          "name": "approved",
          "type": "bool"
        }
      ],
      "name": "ApprovalForAll",
      "type": "event"
    },
    {
      "anonymous": false,
      "inputs": [
        {
          "indexed": true,
          "internalType": "address",
          "name": "from",
          "type": "address"
        },
        {
          "indexed": true,
          "internalType": "address",
          "name": "to",
          "type": "address"
        },
        {
          "indexed": true,
          "internalType": "uint256",
          "name": "tokenId",
          "type": "uint256"
        }
      ],
      "name": "Transfer",
      "type": "event"
    },
    {
      "inputs": [
        {
          "internalType": "address",
          "name": "to",
          "type": "address"
        },
        {
          "internalType": "uint256",
          "name": "tokenId",
          "type": "uint256"
        }
      ],
      "name": "approve",
      "outputs": [],
      "stateMutability": "nonpayable",
      "type": "function"
    },
    {
      "inputs": [
        {
          "internalType": "address",
          "name": "owner",
          "type": "address"
        }
      ],
      "name": "balanceOf",
      "outputs": [
        {
          "internalType": "uint256",
          "name": "",
          "type": "uint256"
        }
      ],
      "stateMutability": "view",
      "type": "function"
    },
    {
      "inputs": [
        {
          "internalType": "uint256",
          "name": "tokenId",
          "type": "uint256"
        }
      ],
      "name": "getApproved",
      "outputs": [
        {
          "internalType": "address",
          "name": "",
          "type": "address"
        }
      ],
      "stateMutability": "view",
      "type": "function"
    },
    {
      "inputs": [
        {
          "internalType": "address",
          "name": "owner",
          "type": "address"
        },
        {
          "internalType": "address",
          "name": "operator",
          "type": "address"
        }
      ],
      "name": "isApprovedForAll",
      "outputs": [
        {
          "internalType": "bool",
          "name": "",
          "type": "bool"
        }
      ],
      "stateMutability": "view",
      "type": "function"
    },
    {
      "inputs": [],
      "name": "name",
      "outputs": [
        {
          "internalType": "string",
          "name": "",
          "type": "string"
        }
      ],
      "stateMutability": "view",
      "type": "function"
    },
    {
      "inputs": [
        {
          "internalType": "uint256",
          "name": "tokenId",
          "type": "uint256"
        }
      ],
      "name": "ownerOf",
      "outputs": [
        {
          "internalType": "address",
          "name": "",
          "type": "address"
        }
      ],
      "stateMutability": "view",
      "type": "function"
    },
    {
      "inputs": [
        {
          "internalType": "address",
          "name": "from",
          "type": "address"
        },
        {
          "internalType": "address",
          "name": "to",
          "type": "address"
        },
        {
          "internalType": "uint256",
          "name": "tokenId",
          "type": "uint256"
        }
      ],
      "name": "safeTransferFrom",
      "outputs": [],
      "stateMutability": "nonpayable",
      "type": "function"
    },
    {
      "inputs": [
        {
          "internalType": "address",
          "name": "from",
          "type": "address"
        },
        {
          "internalType": "address",
          "name": "to",
          "type": "address"
        },
        {
          "internalType": "uint256",
          "name": "tokenId",
          "type": "uint256"
        },
        {
          "internalType": "bytes",
          "name": "_data",
          "type": "bytes"
        }
      ],
      "name": "safeTransferFrom",
      "outputs": [],
      "stateMutability": "nonpayable",
      "type": "function"
    },
    {
      "inputs": [
        {
          "internalType": "address",
          "name": "operator",
          "type": "address"
        },
        {
          "internalType": "bool",
          "name": "approved",
          "type": "bool"
        }
      ],
      "name": "setApprovalForAll",
      "outputs": [],
      "stateMutability": "nonpayable",
      "type": "function"
    },
    {
      "inputs": [
        {
          "internalType": "bytes4",
          "name": "interfaceId",
          "type": "bytes4"
        }
      ],
      "name": "supportsInterface",
      "outputs": [
        {
          "internalType": "bool",
          "name": "",
          "type": "bool"
        }
      ],
      "stateMutability": "view",
      "type": "function"
    },
    {
      "inputs": [],
      "name": "symbol",
      "outputs": [
        {
          "internalType": "string",
          "name": "",
          "type": "string"
        }
      ],
      "stateMutability": "view",
      "type": "function"
    },
    {
      "inputs": [
        {
          "internalType": "uint256",
          "name": "tokenId",
          "type": "uint256"
        }
      ],
      "name": "tokenURI",
      "outputs": [
        {
          "internalType": "string",
          "name": "",
          "type": "string"
        }
      ],
      "stateMutability": "view",
      "type": "function"
    },
    {
      "inputs": [
        {
          "internalType": "address",
          "name": "from",
          "type": "address"
        },
        {
          "internalType": "address",
          "name": "to",
          "type": "address"
        },
        {
          "internalType": "uint256",
          "name": "tokenId",
          "type": "uint256"
        }
      ],
      "name": "transferFrom",
      "outputs": [],
      "stateMutability": "nonpayable",
      "type": "function"
    },
    {
      "inputs": [
        {
          "internalType": "uint256",
          "name": "_tokenId",
          "type": "uint256"
        }
      ],
      "name": "getPageNumber",
      "outputs": [
        {
          "internalType": "uint256",
          "name": "",
          "type": "uint256"
        }
      ],
      "stateMutability": "view",
      "type": "function"
    },
    {
      "inputs": [
        {
          "internalType": "string",
          "name": "_title",
          "type": "string"
        },
        {
          "internalType": "string",
          "name": "_body",
          "type": "string"
        },
        {
          "internalType": "string",
          "name": "_rubric",
          "type": "string"
        }
      ],
      "name": "mintLetter",
      "outputs": [
        {
          "internalType": "uint256",
          "name": "",
          "type": "uint256"
        }
      ],
      "stateMutability": "nonpayable",
      "type": "function"
    },
    {
      "inputs": [
        {
          "internalType": "uint256",
          "name": "_letterId",
          "type": "uint256"
        },
        {
          "internalType": "string",
          "name": "_title",
          "type": "string"
        },
        {
          "internalType": "string",
          "name": "_body",
          "type": "string"
        },
        {
          "internalType": "string",
          "name": "_rubric",
          "type": "string"
        }
      ],
      "name": "mintAppendPage",
      "outputs": [
        {
          "internalType": "uint256",
          "name": "",
          "type": "uint256"
        }
      ],
      "stateMutability": "nonpayable",
      "type": "function"
    }
  ],
  "bytecode": "0x60806040523480156200001157600080fd5b506040518060400160405280600681526020017f4c657474657200000000000000000000000000000000000000000000000000008152506040518060400160405280600481526020017f4c45545400000000000000000000000000000000000000000000000000000000815250816000908051906020019062000096929190620000b8565b508060019080519060200190620000af929190620000b8565b505050620001cd565b828054620000c69062000168565b90600052602060002090601f016020900481019282620000ea576000855562000136565b82601f106200010557805160ff191683800117855562000136565b8280016001018555821562000136579182015b828111156200013557825182559160200191906001019062000118565b5b50905062000145919062000149565b5090565b5b80821115620001645760008160009055506001016200014a565b5090565b600060028204905060018216806200018157607f821691505b602082108114156200019857620001976200019e565b5b50919050565b7f4e487b7100000000000000000000000000000000000000000000000000000000600052602260045260246000fd5b61335f80620001dd6000396000f3fe608060405234801561001057600080fd5b50600436106101005760003560e01c806342842e0e11610097578063a22cb46511610066578063a22cb465146102e5578063b88d4fde14610301578063c87b56dd1461031d578063e985e9c51461034d57610100565b806342842e0e1461024b5780636352211e1461026757806370a082311461029757806395d89b41146102c757610100565b806323b872dd116100d357806323b872dd1461019f5780632b6e47e4146101bb57806330b10436146101eb5780634229ec521461021b57610100565b806301ffc9a71461010557806306fdde0314610135578063081812fc14610153578063095ea7b314610183575b600080fd5b61011f600480360381019061011a91906120b1565b61037d565b60405161012c9190612bb7565b60405180910390f35b61013d61045f565b60405161014a9190612bd2565b60405180910390f35b61016d6004803603810190610168919061219a565b6104f1565b60405161017a9190612b50565b60405180910390f35b61019d60048036038101906101989190612075565b610576565b005b6101b960048036038101906101b49190611f6f565b61068e565b005b6101d560048036038101906101d0919061219a565b6106ee565b6040516101e29190612ef4565b60405180910390f35b610205600480360381019061020091906121c3565b6107a9565b6040516102129190612ef4565b60405180910390f35b61023560048036038101906102309190612103565b610ab4565b6040516102429190612ef4565b60405180910390f35b61026560048036038101906102609190611f6f565b610d3c565b005b610281600480360381019061027c919061219a565b610d5c565b60405161028e9190612b50565b60405180910390f35b6102b160048036038101906102ac9190611f0a565b610e0e565b6040516102be9190612ef4565b60405180910390f35b6102cf610ec6565b6040516102dc9190612bd2565b60405180910390f35b6102ff60048036038101906102fa9190612039565b610f58565b005b61031b60048036038101906103169190611fbe565b6110d9565b005b6103376004803603810190610332919061219a565b61113b565b6040516103449190612bd2565b60405180910390f35b61036760048036038101906103629190611f33565b6111e2565b6040516103749190612bb7565b60405180910390f35b60007f80ac58cd000000000000000000000000000000000000000000000000000000007bffffffffffffffffffffffffffffffffffffffffffffffffffffffff1916827bffffffffffffffffffffffffffffffffffffffffffffffffffffffff1916148061044857507f5b5e139f000000000000000000000000000000000000000000000000000000007bffffffffffffffffffffffffffffffffffffffffffffffffffffffff1916827bffffffffffffffffffffffffffffffffffffffffffffffffffffffff1916145b80610458575061045782611276565b5b9050919050565b60606000805461046e90613154565b80601f016020809104026020016040519081016040528092919081815260200182805461049a90613154565b80156104e75780601f106104bc576101008083540402835291602001916104e7565b820191906000526020600020905b8154815290600101906020018083116104ca57829003601f168201915b5050505050905090565b60006104fc826112e0565b61053b576040517f08c379a000000000000000000000000000000000000000000000000000000000815260040161053290612d94565b60405180910390fd5b6004600083815260200190815260200160002060009054906101000a900473ffffffffffffffffffffffffffffffffffffffff169050919050565b600061058182610d5c565b90508073ffffffffffffffffffffffffffffffffffffffff168373ffffffffffffffffffffffffffffffffffffffff1614156105f2576040517f08c379a00000000000000000000000000000000000000000000000000000000081526004016105e990612e14565b60405180910390fd5b8073ffffffffffffffffffffffffffffffffffffffff1661061161134c565b73ffffffffffffffffffffffffffffffffffffffff161480610640575061063f8161063a61134c565b6111e2565b5b61067f576040517f08c379a000000000000000000000000000000000000000000000000000000000815260040161067690612cf4565b60405180910390fd5b6106898383611354565b505050565b61069f61069961134c565b8261140d565b6106de576040517f08c379a00000000000000000000000000000000000000000000000000000000081526004016106d590612e54565b60405180910390fd5b6106e98383836114eb565b505050565b60008060076000848152602001908152602001600020541415610746576040517f08c379a000000000000000000000000000000000000000000000000000000000815260040161073d90612e34565b60405180910390fd5b600060076000848152602001908152602001600020549050600083905060005b81831461079e576008600083815260200190815260200160002054915061079760018261174790919063ffffffff16565b9050610766565b809350505050919050565b60008060076000878152602001908152602001600020541415610801576040517f08c379a00000000000000000000000000000000000000000000000000000000081526004016107f890612c14565b60405180910390fd5b600061080c8461175d565b141561084d576040517f08c379a000000000000000000000000000000000000000000000000000000000815260040161084490612e94565b60405180910390fd5b6000604051806060016040528060405180602001604052806000815250815260200160405180602001604052806000815250815260200160405180602001604052806000815250815250905060006108a48661175d565b146108ff5760406108b48661175d565b11156108f5576040517f08c379a00000000000000000000000000000000000000000000000000000000081526004016108ec90612eb4565b60405180910390fd5b8481600001819052505b600061090a8461175d565b1461096557604061091a8461175d565b111561095b576040517f08c379a000000000000000000000000000000000000000000000000000000000815260040161095290612e74565b60405180910390fd5b8281604001819052505b620100006109728661175d565b11156109b3576040517f08c379a00000000000000000000000000000000000000000000000000000000081526004016109aa90612df4565b60405180910390fd5b83816020018190525060006109c8600a61176d565b90506109d4600a61177b565b6009600088815260200190815260200160002054600860008381526020019081526020016000208190555080600960008981526020019081526020016000208190555086600760008381526020019081526020016000208190555081600660008381526020019081526020016000206000820151816000019080519060200190610a5f929190611d2e565b506020820151816001019080519060200190610a7c929190611d2e565b506040820151816002019080519060200190610a99929190611d2e565b50905050610aa73382611791565b8092505050949350505050565b600080610ac08461175d565b1415610b01576040517f08c379a0000000000000000000000000000000000000000000000000000000008152600401610af890612d54565b60405180910390fd5b600060405180606001604052806040518060200160405280600081525081526020016040518060200160405280600081525081526020016040518060200160405280600081525081525090506000610b588661175d565b14610bb3576040610b688661175d565b1115610ba9576040517f08c379a0000000000000000000000000000000000000000000000000000000008152600401610ba090612c94565b60405180910390fd5b8481600001819052505b6000610bbe8461175d565b14610c19576040610bce8461175d565b1115610c0f576040517f08c379a0000000000000000000000000000000000000000000000000000000008152600401610c0690612cd4565b60405180910390fd5b8281604001819052505b62010000610c268661175d565b1115610c67576040517f08c379a0000000000000000000000000000000000000000000000000000000008152600401610c5e90612ed4565b60405180910390fd5b8381602001819052506000610c7c600a61176d565b9050610c88600a61177b565b81600660008381526020019081526020016000206000820151816000019080519060200190610cb8929190611d2e565b506020820151816001019080519060200190610cd5929190611d2e565b506040820151816002019080519060200190610cf2929190611d2e565b50905050806007600083815260200190815260200160002081905550806009600083815260200190815260200160002081905550610d303382611791565b80925050509392505050565b610d57838383604051806020016040528060008152506110d9565b505050565b6000806002600084815260200190815260200160002060009054906101000a900473ffffffffffffffffffffffffffffffffffffffff169050600073ffffffffffffffffffffffffffffffffffffffff168173ffffffffffffffffffffffffffffffffffffffff161415610e05576040517f08c379a0000000000000000000000000000000000000000000000000000000008152600401610dfc90612d34565b60405180910390fd5b80915050919050565b60008073ffffffffffffffffffffffffffffffffffffffff168273ffffffffffffffffffffffffffffffffffffffff161415610e7f576040517f08c379a0000000000000000000000000000000000000000000000000000000008152600401610e7690612d14565b60405180910390fd5b600360008373ffffffffffffffffffffffffffffffffffffffff1673ffffffffffffffffffffffffffffffffffffffff168152602001908152602001600020549050919050565b606060018054610ed590613154565b80601f0160208091040260200160405190810160405280929190818152602001828054610f0190613154565b8015610f4e5780601f10610f2357610100808354040283529160200191610f4e565b820191906000526020600020905b815481529060010190602001808311610f3157829003601f168201915b5050505050905090565b610f6061134c565b73ffffffffffffffffffffffffffffffffffffffff168273ffffffffffffffffffffffffffffffffffffffff161415610fce576040517f08c379a0000000000000000000000000000000000000000000000000000000008152600401610fc590612c74565b60405180910390fd5b8060056000610fdb61134c565b73ffffffffffffffffffffffffffffffffffffffff1673ffffffffffffffffffffffffffffffffffffffff16815260200190815260200160002060008473ffffffffffffffffffffffffffffffffffffffff1673ffffffffffffffffffffffffffffffffffffffff16815260200190815260200160002060006101000a81548160ff0219169083151502179055508173ffffffffffffffffffffffffffffffffffffffff1661108861134c565b73ffffffffffffffffffffffffffffffffffffffff167f17307eab39ab6107e8899845ad3d59bd9653f200f220920489ca2b5937696c31836040516110cd9190612bb7565b60405180910390a35050565b6110ea6110e461134c565b8361140d565b611129576040517f08c379a000000000000000000000000000000000000000000000000000000000815260040161112090612e54565b60405180910390fd5b6111358484848461195f565b50505050565b6060611146826112e0565b611185576040517f08c379a000000000000000000000000000000000000000000000000000000000815260040161117c90612dd4565b60405180910390fd5b600061118f6119bb565b905060008151116111af57604051806020016040528060008152506111da565b806111b9846119d2565b6040516020016111ca929190612b2c565b6040516020818303038152906040525b915050919050565b6000600560008473ffffffffffffffffffffffffffffffffffffffff1673ffffffffffffffffffffffffffffffffffffffff16815260200190815260200160002060008373ffffffffffffffffffffffffffffffffffffffff1673ffffffffffffffffffffffffffffffffffffffff16815260200190815260200160002060009054906101000a900460ff16905092915050565b60007f01ffc9a7000000000000000000000000000000000000000000000000000000007bffffffffffffffffffffffffffffffffffffffffffffffffffffffff1916827bffffffffffffffffffffffffffffffffffffffffffffffffffffffff1916149050919050565b60008073ffffffffffffffffffffffffffffffffffffffff166002600084815260200190815260200160002060009054906101000a900473ffffffffffffffffffffffffffffffffffffffff1673ffffffffffffffffffffffffffffffffffffffff1614159050919050565b600033905090565b816004600083815260200190815260200160002060006101000a81548173ffffffffffffffffffffffffffffffffffffffff021916908373ffffffffffffffffffffffffffffffffffffffff160217905550808273ffffffffffffffffffffffffffffffffffffffff166113c783610d5c565b73ffffffffffffffffffffffffffffffffffffffff167f8c5be1e5ebec7d5bd14f71427d1e84f3dd0314c0f7b2291e5b200ac8c7c3b92560405160405180910390a45050565b6000611418826112e0565b611457576040517f08c379a000000000000000000000000000000000000000000000000000000000815260040161144e90612cb4565b60405180910390fd5b600061146283610d5c565b90508073ffffffffffffffffffffffffffffffffffffffff168473ffffffffffffffffffffffffffffffffffffffff1614806114d157508373ffffffffffffffffffffffffffffffffffffffff166114b9846104f1565b73ffffffffffffffffffffffffffffffffffffffff16145b806114e257506114e181856111e2565b5b91505092915050565b8273ffffffffffffffffffffffffffffffffffffffff1661150b82610d5c565b73ffffffffffffffffffffffffffffffffffffffff1614611561576040517f08c379a000000000000000000000000000000000000000000000000000000000815260040161155890612db4565b60405180910390fd5b600073ffffffffffffffffffffffffffffffffffffffff168273ffffffffffffffffffffffffffffffffffffffff1614156115d1576040517f08c379a00000000000000000000000000000000000000000000000000000000081526004016115c890612c54565b60405180910390fd5b6115dc838383611b7f565b6115e7600082611354565b6001600360008573ffffffffffffffffffffffffffffffffffffffff1673ffffffffffffffffffffffffffffffffffffffff1681526020019081526020016000206000828254611637919061306a565b925050819055506001600360008473ffffffffffffffffffffffffffffffffffffffff1673ffffffffffffffffffffffffffffffffffffffff168152602001908152602001600020600082825461168e9190612fe3565b92505081905550816002600083815260200190815260200160002060006101000a81548173ffffffffffffffffffffffffffffffffffffffff021916908373ffffffffffffffffffffffffffffffffffffffff160217905550808273ffffffffffffffffffffffffffffffffffffffff168473ffffffffffffffffffffffffffffffffffffffff167fddf252ad1be2c89b69c2b068fc378daa952ba7f163c4a11628f55a4df523b3ef60405160405180910390a4505050565b600081836117559190612fe3565b905092915050565b6000808290508051915050919050565b600081600001549050919050565b6001816000016000828254019250508190555050565b600073ffffffffffffffffffffffffffffffffffffffff168273ffffffffffffffffffffffffffffffffffffffff161415611801576040517f08c379a00000000000000000000000000000000000000000000000000000000081526004016117f890612d74565b60405180910390fd5b61180a816112e0565b1561184a576040517f08c379a000000000000000000000000000000000000000000000000000000000815260040161184190612c34565b60405180910390fd5b61185660008383611b7f565b6001600360008473ffffffffffffffffffffffffffffffffffffffff1673ffffffffffffffffffffffffffffffffffffffff16815260200190815260200160002060008282546118a69190612fe3565b92505081905550816002600083815260200190815260200160002060006101000a81548173ffffffffffffffffffffffffffffffffffffffff021916908373ffffffffffffffffffffffffffffffffffffffff160217905550808273ffffffffffffffffffffffffffffffffffffffff16600073ffffffffffffffffffffffffffffffffffffffff167fddf252ad1be2c89b69c2b068fc378daa952ba7f163c4a11628f55a4df523b3ef60405160405180910390a45050565b61196a8484846114eb565b61197684848484611b84565b6119b5576040517f08c379a00000000000000000000000000000000000000000000000000000000081526004016119ac90612bf4565b60405180910390fd5b50505050565b606060405180602001604052806000815250905090565b60606000821415611a1a576040518060400160405280600181526020017f30000000000000000000000000000000000000000000000000000000000000008152509050611b7a565b600082905060005b60008214611a4c578080611a3590613186565b915050600a82611a459190613039565b9150611a22565b60008167ffffffffffffffff811115611a8e577f4e487b7100000000000000000000000000000000000000000000000000000000600052604160045260246000fd5b6040519080825280601f01601f191660200182016040528015611ac05781602001600182028036833780820191505090505b5090505b60008514611b7357600182611ad9919061306a565b9150600a85611ae891906131cf565b6030611af49190612fe3565b60f81b818381518110611b30577f4e487b7100000000000000000000000000000000000000000000000000000000600052603260045260246000fd5b60200101907effffffffffffffffffffffffffffffffffffffffffffffffffffffffffffff1916908160001a905350600a85611b6c9190613039565b9450611ac4565b8093505050505b919050565b505050565b6000611ba58473ffffffffffffffffffffffffffffffffffffffff16611d1b565b15611d0e578373ffffffffffffffffffffffffffffffffffffffff1663150b7a02611bce61134c565b8786866040518563ffffffff1660e01b8152600401611bf09493929190612b6b565b602060405180830381600087803b158015611c0a57600080fd5b505af1925050508015611c3b57506040513d601f19601f82011682018060405250810190611c3891906120da565b60015b611cbe573d8060008114611c6b576040519150601f19603f3d011682016040523d82523d6000602084013e611c70565b606091505b50600081511415611cb6576040517f08c379a0000000000000000000000000000000000000000000000000000000008152600401611cad90612bf4565b60405180910390fd5b805181602001fd5b63150b7a0260e01b7bffffffffffffffffffffffffffffffffffffffffffffffffffffffff1916817bffffffffffffffffffffffffffffffffffffffffffffffffffffffff191614915050611d13565b600190505b949350505050565b600080823b905060008111915050919050565b828054611d3a90613154565b90600052602060002090601f016020900481019282611d5c5760008555611da3565b82601f10611d7557805160ff1916838001178555611da3565b82800160010185558215611da3579182015b82811115611da2578251825591602001919060010190611d87565b5b509050611db09190611db4565b5090565b5b80821115611dcd576000816000905550600101611db5565b5090565b6000611de4611ddf84612f40565b612f0f565b905082815260208101848484011115611dfc57600080fd5b611e07848285613112565b509392505050565b6000611e22611e1d84612f70565b612f0f565b905082815260208101848484011115611e3a57600080fd5b611e45848285613112565b509392505050565b600081359050611e5c816132cd565b92915050565b600081359050611e71816132e4565b92915050565b600081359050611e86816132fb565b92915050565b600081519050611e9b816132fb565b92915050565b600082601f830112611eb257600080fd5b8135611ec2848260208601611dd1565b91505092915050565b600082601f830112611edc57600080fd5b8135611eec848260208601611e0f565b91505092915050565b600081359050611f0481613312565b92915050565b600060208284031215611f1c57600080fd5b6000611f2a84828501611e4d565b91505092915050565b60008060408385031215611f4657600080fd5b6000611f5485828601611e4d565b9250506020611f6585828601611e4d565b9150509250929050565b600080600060608486031215611f8457600080fd5b6000611f9286828701611e4d565b9350506020611fa386828701611e4d565b9250506040611fb486828701611ef5565b9150509250925092565b60008060008060808587031215611fd457600080fd5b6000611fe287828801611e4d565b9450506020611ff387828801611e4d565b935050604061200487828801611ef5565b925050606085013567ffffffffffffffff81111561202157600080fd5b61202d87828801611ea1565b91505092959194509250565b6000806040838503121561204c57600080fd5b600061205a85828601611e4d565b925050602061206b85828601611e62565b9150509250929050565b6000806040838503121561208857600080fd5b600061209685828601611e4d565b92505060206120a785828601611ef5565b9150509250929050565b6000602082840312156120c357600080fd5b60006120d184828501611e77565b91505092915050565b6000602082840312156120ec57600080fd5b60006120fa84828501611e8c565b91505092915050565b60008060006060848603121561211857600080fd5b600084013567ffffffffffffffff81111561213257600080fd5b61213e86828701611ecb565b935050602084013567ffffffffffffffff81111561215b57600080fd5b61216786828701611ecb565b925050604084013567ffffffffffffffff81111561218457600080fd5b61219086828701611ecb565b9150509250925092565b6000602082840312156121ac57600080fd5b60006121ba84828501611ef5565b91505092915050565b600080600080608085870312156121d957600080fd5b60006121e787828801611ef5565b945050602085013567ffffffffffffffff81111561220457600080fd5b61221087828801611ecb565b935050604085013567ffffffffffffffff81111561222d57600080fd5b61223987828801611ecb565b925050606085013567ffffffffffffffff81111561225657600080fd5b61226287828801611ecb565b91505092959194509250565b6122778161309e565b82525050565b612286816130b0565b82525050565b600061229782612fa0565b6122a18185612fb6565b93506122b1818560208601613121565b6122ba816132bc565b840191505092915050565b60006122d082612fab565b6122da8185612fc7565b93506122ea818560208601613121565b6122f3816132bc565b840191505092915050565b600061230982612fab565b6123138185612fd8565b9350612323818560208601613121565b80840191505092915050565b600061233c603283612fc7565b91507f4552433732313a207472616e7366657220746f206e6f6e20455243373231526560008301527f63656976657220696d706c656d656e74657200000000000000000000000000006020830152604082019050919050565b60006123a2602b83612fc7565b91507f43616e6e6f74206d696e7420506167652077697468206e6f6e2d65786973746560008301527f6e74206c657474657249640000000000000000000000000000000000000000006020830152604082019050919050565b6000612408601c83612fc7565b91507f4552433732313a20746f6b656e20616c7265616479206d696e746564000000006000830152602082019050919050565b6000612448602483612fc7565b91507f4552433732313a207472616e7366657220746f20746865207a65726f2061646460008301527f72657373000000000000000000000000000000000000000000000000000000006020830152604082019050919050565b60006124ae601983612fc7565b91507f4552433732313a20617070726f766520746f2063616c6c6572000000000000006000830152602082019050919050565b60006124ee601483612fc7565b91507f5469746c65206d6178206c656e6774683a2036340000000000000000000000006000830152602082019050919050565b600061252e602c83612fc7565b91507f4552433732313a206f70657261746f7220717565727920666f72206e6f6e657860008301527f697374656e7420746f6b656e00000000000000000000000000000000000000006020830152604082019050919050565b6000612594601583612fc7565b91507f527562726963206d6178206c656e6774683a20363400000000000000000000006000830152602082019050919050565b60006125d4603883612fc7565b91507f4552433732313a20617070726f76652063616c6c6572206973206e6f74206f7760008301527f6e6572206e6f7220617070726f76656420666f7220616c6c00000000000000006020830152604082019050919050565b600061263a602a83612fc7565b91507f4552433732313a2062616c616e636520717565727920666f7220746865207a6560008301527f726f2061646472657373000000000000000000000000000000000000000000006020830152604082019050919050565b60006126a0602983612fc7565b91507f4552433732313a206f776e657220717565727920666f72206e6f6e657869737460008301527f656e7420746f6b656e00000000000000000000000000000000000000000000006020830152604082019050919050565b6000612706601a83612fc7565b91507f43616e6e6f74206d696e7420776974686f7574206120626f64790000000000006000830152602082019050919050565b6000612746602083612fc7565b91507f4552433732313a206d696e7420746f20746865207a65726f20616464726573736000830152602082019050919050565b6000612786602c83612fc7565b91507f4552433732313a20617070726f76656420717565727920666f72206e6f6e657860008301527f697374656e7420746f6b656e00000000000000000000000000000000000000006020830152604082019050919050565b60006127ec602983612fc7565b91507f4552433732313a207472616e73666572206f6620746f6b656e2074686174206960008301527f73206e6f74206f776e00000000000000000000000000000000000000000000006020830152604082019050919050565b6000612852602f83612fc7565b91507f4552433732314d657461646174613a2055524920717565727920666f72206e6f60008301527f6e6578697374656e7420746f6b656e00000000000000000000000000000000006020830152604082019050919050565b60006128b8601b83612fc7565b91507f5061676520426f6479206d6178206c656e6774683a20363535333600000000006000830152602082019050919050565b60006128f8602183612fc7565b91507f4552433732313a20617070726f76616c20746f2063757272656e74206f776e6560008301527f72000000000000000000000000000000000000000000000000000000000000006020830152604082019050919050565b600061295e602683612fc7565b91507f43616e6e6f7420676574204e756d626572206f66206e6f6e2d6578697374656e60008301527f74205061676500000000000000000000000000000000000000000000000000006020830152604082019050919050565b60006129c4603183612fc7565b91507f4552433732313a207472616e736665722063616c6c6572206973206e6f74206f60008301527f776e6572206e6f7220617070726f7665640000000000000000000000000000006020830152604082019050919050565b6000612a2a601a83612fc7565b91507f5061676520527562726963206d6178206c656e6774683a2036340000000000006000830152602082019050919050565b6000612a6a601f83612fc7565b91507f43616e6e6f74206d696e74205061676520776974686f7574206120626f6479006000830152602082019050919050565b6000612aaa601983612fc7565b91507f50616765205469746c65206d6178206c656e6774683a203634000000000000006000830152602082019050919050565b6000612aea601683612fc7565b91507f426f6479206d6178206c656e6774683a203635353336000000000000000000006000830152602082019050919050565b612b2681613108565b82525050565b6000612b3882856122fe565b9150612b4482846122fe565b91508190509392505050565b6000602082019050612b65600083018461226e565b92915050565b6000608082019050612b80600083018761226e565b612b8d602083018661226e565b612b9a6040830185612b1d565b8181036060830152612bac818461228c565b905095945050505050565b6000602082019050612bcc600083018461227d565b92915050565b60006020820190508181036000830152612bec81846122c5565b905092915050565b60006020820190508181036000830152612c0d8161232f565b9050919050565b60006020820190508181036000830152612c2d81612395565b9050919050565b60006020820190508181036000830152612c4d816123fb565b9050919050565b60006020820190508181036000830152612c6d8161243b565b9050919050565b60006020820190508181036000830152612c8d816124a1565b9050919050565b60006020820190508181036000830152612cad816124e1565b9050919050565b60006020820190508181036000830152612ccd81612521565b9050919050565b60006020820190508181036000830152612ced81612587565b9050919050565b60006020820190508181036000830152612d0d816125c7565b9050919050565b60006020820190508181036000830152612d2d8161262d565b9050919050565b60006020820190508181036000830152612d4d81612693565b9050919050565b60006020820190508181036000830152612d6d816126f9565b9050919050565b60006020820190508181036000830152612d8d81612739565b9050919050565b60006020820190508181036000830152612dad81612779565b9050919050565b60006020820190508181036000830152612dcd816127df565b9050919050565b60006020820190508181036000830152612ded81612845565b9050919050565b60006020820190508181036000830152612e0d816128ab565b9050919050565b60006020820190508181036000830152612e2d816128eb565b9050919050565b60006020820190508181036000830152612e4d81612951565b9050919050565b60006020820190508181036000830152612e6d816129b7565b9050919050565b60006020820190508181036000830152612e8d81612a1d565b9050919050565b60006020820190508181036000830152612ead81612a5d565b9050919050565b60006020820190508181036000830152612ecd81612a9d565b9050919050565b60006020820190508181036000830152612eed81612add565b9050919050565b6000602082019050612f096000830184612b1d565b92915050565b6000604051905081810181811067ffffffffffffffff82111715612f3657612f3561328d565b5b8060405250919050565b600067ffffffffffffffff821115612f5b57612f5a61328d565b5b601f19601f8301169050602081019050919050565b600067ffffffffffffffff821115612f8b57612f8a61328d565b5b601f19601f8301169050602081019050919050565b600081519050919050565b600081519050919050565b600082825260208201905092915050565b600082825260208201905092915050565b600081905092915050565b6000612fee82613108565b9150612ff983613108565b9250827fffffffffffffffffffffffffffffffffffffffffffffffffffffffffffffffff0382111561302e5761302d613200565b5b828201905092915050565b600061304482613108565b915061304f83613108565b92508261305f5761305e61322f565b5b828204905092915050565b600061307582613108565b915061308083613108565b92508282101561309357613092613200565b5b828203905092915050565b60006130a9826130e8565b9050919050565b60008115159050919050565b60007fffffffff0000000000000000000000000000000000000000000000000000000082169050919050565b600073ffffffffffffffffffffffffffffffffffffffff82169050919050565b6000819050919050565b82818337600083830152505050565b60005b8381101561313f578082015181840152602081019050613124565b8381111561314e576000848401525b50505050565b6000600282049050600182168061316c57607f821691505b602082108114156131805761317f61325e565b5b50919050565b600061319182613108565b91507fffffffffffffffffffffffffffffffffffffffffffffffffffffffffffffffff8214156131c4576131c3613200565b5b600182019050919050565b60006131da82613108565b91506131e583613108565b9250826131f5576131f461322f565b5b828206905092915050565b7f4e487b7100000000000000000000000000000000000000000000000000000000600052601160045260246000fd5b7f4e487b7100000000000000000000000000000000000000000000000000000000600052601260045260246000fd5b7f4e487b7100000000000000000000000000000000000000000000000000000000600052602260045260246000fd5b7f4e487b7100000000000000000000000000000000000000000000000000000000600052604160045260246000fd5b6000601f19601f8301169050919050565b6132d68161309e565b81146132e157600080fd5b50565b6132ed816130b0565b81146132f857600080fd5b50565b613304816130bc565b811461330f57600080fd5b50565b61331b81613108565b811461332657600080fd5b5056fea2646970667358221220a96d5ff38f8e1519d692522048045a4f86d054d1b0956dee5b8238411c5dff5f64736f6c63430008000033",
  "immutableReferences": {},
  "source": "// SPDX-License-Identifier: MIT\n\npragma solidity ^0.8.0;\n\nimport \"@openzeppelin/contracts/token/ERC721/ERC721.sol\";\nimport \"@openzeppelin/contracts/utils/Counters.sol\";\nimport \"@openzeppelin/contracts/utils/math/SafeMath.sol\";\n\ncontract Letter is ERC721 {\n\n  constructor() public ERC721(\"Letter\", \"LETT\") {}\n\n  struct Page {\n    string title;\n    string body;\n    string rubric;\n  }\n\n  // Correspondance between each tokenId and its struct Page\n  mapping (uint256 => Page) private page;             \n\n  // A Letter is defined as a Linked List of Pages.\n  // Each Letter is identified by it's head Page's tokenId. \n  mapping (uint256 => uint256) private letterId;      // which Letter each Page belongs to?\n  mapping (uint256 => uint256) private parentTokenId; // what's the Page's ParentTokenId?\n  mapping (uint256 => uint256) private tailId;        // what's the Letter's tail tokenId?\n\n  // Safely count tokenIds\n  using Counters for Counters.Counter;\n  Counters.Counter private tokenIds;\n\n  // Count String Length\n  function getStringLength(string memory _s) \n  private\n  view\n  returns (uint) {\n    bytes memory bs = bytes(_s);\n    return bs.length;\n  }\n\n  // Safely count Pages\n  using SafeMath for uint256;\n\n  // Calculate Page Number\n  function getPageNumber(uint256 _tokenId)\n  public\n  view\n  returns (uint256)\n  {\n    \n    // Page must exist\n    require((letterId[_tokenId] != 0), \"Cannot get Number of non-existent Page\");\n\n    uint256 iLetterId = letterId[_tokenId];\n    uint256 iTokenId = _tokenId;\n    uint256 counter = 0;\n\n    while (iLetterId != iTokenId) {\n      iTokenId = parentTokenId[iTokenId];\n      counter = counter.add(1);\n    }\n\n    return counter;\n  }\n\n  // Mint new Letter\n  function mintLetter(string memory _title, string memory _body, string memory _rubric)\n  public\n  returns (uint256)\n  {\n\n    // Page Body is mandatory\n    require((getStringLength(_body) != 0), \"Cannot mint without a body\");\n\n    // Create new empty struct Page\n    Page memory newPage = Page(\"\", \"\", \"\");\n\n    // Page Title is optional, max 64 characters\n    if (getStringLength(_title) != 0) {\n      require((getStringLength(_title) <= 64), \"Title max length: 64\");\n      newPage.title = _title;\n    }\n    \n    // Page Rubric is optional, max 64 characters\n    if (getStringLength(_rubric) != 0) {\n      require((getStringLength(_rubric) <= 64), \"Rubric max length: 64\");\n      newPage.rubric = _rubric;\n    }\n\n    // Page Body is max 65536 characters\n    require((getStringLength(_title) <= 65536), \"Body max length: 65536\");\n    newPage.body = _body;\n\n    // Create new Token\n    uint256 newTokenId = tokenIds.current();\n    tokenIds.increment();\n\n    // Associate Token to struct Page\n    page[newTokenId] = newPage;\n\n    // Start new Letter\n    letterId[newTokenId] = newTokenId;\n    tailId[newTokenId] = newTokenId;\n\n    // Mint Token\n    _mint(msg.sender, newTokenId);\n\n    // Return minted Page Token Id\n    return newTokenId;\n\n  }\n\n  // Mint new Page, append to some existing Letter\n  function mintAppendPage(uint256 _letterId, string memory _title, string memory _body, string memory _rubric)\n  public\n  returns (uint256)\n  {\n\n    // Letter must exist\n    require((letterId[_letterId] != 0), \"Cannot mint Page with non-existent letterId\");\n\n    // ToDo: require ownership of letterId\n\n    // Page Body is mandatory\n    require((getStringLength(_body) != 0), \"Cannot mint Page without a body\");\n\n    // Create new empty struct Page\n    Page memory newPage = Page(\"\", \"\", \"\");\n\n    // Page Title is optional, max 64 characters\n    if (getStringLength(_title) != 0) {\n      require((getStringLength(_title) <= 64), \"Page Title max length: 64\");\n      newPage.title = _title;\n    }\n    \n    // Page Rubric is optional, max 64 characters\n    if (getStringLength(_rubric) != 0) {\n      require((getStringLength(_rubric) <= 64), \"Page Rubric max length: 64\");\n      newPage.rubric = _rubric;\n    }\n\n    // Page Body is max 65536 characters\n    require((getStringLength(_title) <= 65536), \"Page Body max length: 65536\");\n    newPage.body = _body;\n\n    // Create new Token\n    uint256 newTokenId = tokenIds.current();\n    tokenIds.increment();\n\n    // Update Letter Linked List\n    parentTokenId[newTokenId] = tailId[_letterId];\n    tailId[_letterId] = newTokenId;\n\n    // Set new Token's letterId\n    letterId[newTokenId] = _letterId;\n\n    // Associate Token to struct Page\n    page[newTokenId] = newPage;\n\n    // Mint Token\n    _mint(msg.sender, newTokenId);\n\n    // Return minted Page Token Id\n    return newTokenId;\n\n  }\n\n  // ToDo: remove tokenURI field?\n}",
  "sourcePath": "/home/bernardo/develop/letter/contracts/Letter.sol",
  "compiler": {
    "name": "solc",
    "version": "0.8.0+commit.c7dfd78e.Emscripten.clang"
  },
  "schemaVersion": "3.4.1",
  "updatedAt": "2021-06-14T02:46:26.240Z",
  "devdoc": {
    "kind": "dev",
    "methods": {
      "approve(address,uint256)": {
        "details": "See {IERC721-approve}."
      },
      "balanceOf(address)": {
        "details": "See {IERC721-balanceOf}."
      },
      "getApproved(uint256)": {
        "details": "See {IERC721-getApproved}."
      },
      "isApprovedForAll(address,address)": {
        "details": "See {IERC721-isApprovedForAll}."
      },
      "name()": {
        "details": "See {IERC721Metadata-name}."
      },
      "ownerOf(uint256)": {
        "details": "See {IERC721-ownerOf}."
      },
      "safeTransferFrom(address,address,uint256)": {
        "details": "See {IERC721-safeTransferFrom}."
      },
      "safeTransferFrom(address,address,uint256,bytes)": {
        "details": "See {IERC721-safeTransferFrom}."
      },
      "setApprovalForAll(address,bool)": {
        "details": "See {IERC721-setApprovalForAll}."
      },
      "supportsInterface(bytes4)": {
        "details": "See {IERC165-supportsInterface}."
      },
      "symbol()": {
        "details": "See {IERC721Metadata-symbol}."
      },
      "tokenURI(uint256)": {
        "details": "See {IERC721Metadata-tokenURI}."
      },
      "transferFrom(address,address,uint256)": {
        "details": "See {IERC721-transferFrom}."
      }
    },
    "version": 1
  },
  "userdoc": {
    "kind": "user",
    "methods": {},
    "version": 1
  }
}