{
  "contractName": "Letter",
  "abi": [
    {
      "inputs": [],
      "stateMutability": "nonpayable",
      "type": "constructor"
    },
    {
      "anonymous": false,
      "inputs": [
        {
          "indexed": true,
          "internalType": "address",
          "name": "owner",
          "type": "address"
        },
        {
          "indexed": true,
          "internalType": "address",
          "name": "approved",
          "type": "address"
        },
        {
          "indexed": true,
          "internalType": "uint256",
          "name": "tokenId",
          "type": "uint256"
        }
      ],
      "name": "Approval",
      "type": "event"
    },
    {
      "anonymous": false,
      "inputs": [
        {
          "indexed": true,
          "internalType": "address",
          "name": "owner",
          "type": "address"
        },
        {
          "indexed": true,
          "internalType": "address",
          "name": "operator",
          "type": "address"
        },
        {
          "indexed": false,
          "internalType": "bool",
          "name": "approved",
          "type": "bool"
        }
      ],
      "name": "ApprovalForAll",
      "type": "event"
    },
    {
      "anonymous": false,
      "inputs": [
        {
          "indexed": true,
          "internalType": "address",
          "name": "from",
          "type": "address"
        },
        {
          "indexed": true,
          "internalType": "address",
          "name": "to",
          "type": "address"
        },
        {
          "indexed": true,
          "internalType": "uint256",
          "name": "tokenId",
          "type": "uint256"
        }
      ],
      "name": "Transfer",
      "type": "event"
    },
    {
      "inputs": [
        {
          "internalType": "address",
          "name": "to",
          "type": "address"
        },
        {
          "internalType": "uint256",
          "name": "tokenId",
          "type": "uint256"
        }
      ],
      "name": "approve",
      "outputs": [],
      "stateMutability": "nonpayable",
      "type": "function"
    },
    {
      "inputs": [
        {
          "internalType": "address",
          "name": "owner",
          "type": "address"
        }
      ],
      "name": "balanceOf",
      "outputs": [
        {
          "internalType": "uint256",
          "name": "",
          "type": "uint256"
        }
      ],
      "stateMutability": "view",
      "type": "function",
      "constant": true
    },
    {
      "inputs": [
        {
          "internalType": "uint256",
          "name": "tokenId",
          "type": "uint256"
        }
      ],
      "name": "getApproved",
      "outputs": [
        {
          "internalType": "address",
          "name": "",
          "type": "address"
        }
      ],
      "stateMutability": "view",
      "type": "function",
      "constant": true
    },
    {
      "inputs": [
        {
          "internalType": "address",
          "name": "owner",
          "type": "address"
        },
        {
          "internalType": "address",
          "name": "operator",
          "type": "address"
        }
      ],
      "name": "isApprovedForAll",
      "outputs": [
        {
          "internalType": "bool",
          "name": "",
          "type": "bool"
        }
      ],
      "stateMutability": "view",
      "type": "function",
      "constant": true
    },
    {
      "inputs": [],
      "name": "name",
      "outputs": [
        {
          "internalType": "string",
          "name": "",
          "type": "string"
        }
      ],
      "stateMutability": "view",
      "type": "function",
      "constant": true
    },
    {
      "inputs": [
        {
          "internalType": "uint256",
          "name": "tokenId",
          "type": "uint256"
        }
      ],
      "name": "ownerOf",
      "outputs": [
        {
          "internalType": "address",
          "name": "",
          "type": "address"
        }
      ],
      "stateMutability": "view",
      "type": "function",
      "constant": true
    },
    {
      "inputs": [
        {
          "internalType": "address",
          "name": "from",
          "type": "address"
        },
        {
          "internalType": "address",
          "name": "to",
          "type": "address"
        },
        {
          "internalType": "uint256",
          "name": "tokenId",
          "type": "uint256"
        }
      ],
      "name": "safeTransferFrom",
      "outputs": [],
      "stateMutability": "nonpayable",
      "type": "function"
    },
    {
      "inputs": [
        {
          "internalType": "address",
          "name": "from",
          "type": "address"
        },
        {
          "internalType": "address",
          "name": "to",
          "type": "address"
        },
        {
          "internalType": "uint256",
          "name": "tokenId",
          "type": "uint256"
        },
        {
          "internalType": "bytes",
          "name": "_data",
          "type": "bytes"
        }
      ],
      "name": "safeTransferFrom",
      "outputs": [],
      "stateMutability": "nonpayable",
      "type": "function"
    },
    {
      "inputs": [
        {
          "internalType": "address",
          "name": "operator",
          "type": "address"
        },
        {
          "internalType": "bool",
          "name": "approved",
          "type": "bool"
        }
      ],
      "name": "setApprovalForAll",
      "outputs": [],
      "stateMutability": "nonpayable",
      "type": "function"
    },
    {
      "inputs": [
        {
          "internalType": "bytes4",
          "name": "interfaceId",
          "type": "bytes4"
        }
      ],
      "name": "supportsInterface",
      "outputs": [
        {
          "internalType": "bool",
          "name": "",
          "type": "bool"
        }
      ],
      "stateMutability": "view",
      "type": "function",
      "constant": true
    },
    {
      "inputs": [],
      "name": "symbol",
      "outputs": [
        {
          "internalType": "string",
          "name": "",
          "type": "string"
        }
      ],
      "stateMutability": "view",
      "type": "function",
      "constant": true
    },
    {
      "inputs": [
        {
          "internalType": "address",
          "name": "from",
          "type": "address"
        },
        {
          "internalType": "address",
          "name": "to",
          "type": "address"
        },
        {
          "internalType": "uint256",
          "name": "tokenId",
          "type": "uint256"
        }
      ],
      "name": "transferFrom",
      "outputs": [],
      "stateMutability": "nonpayable",
      "type": "function"
    },
    {
      "inputs": [
        {
          "internalType": "string",
          "name": "_ipfsCID",
          "type": "string"
        }
      ],
      "name": "createPage",
      "outputs": [
        {
          "internalType": "uint256",
          "name": "",
          "type": "uint256"
        }
      ],
      "stateMutability": "nonpayable",
      "type": "function"
    },
    {
      "inputs": [
        {
          "internalType": "uint256",
          "name": "tokenId",
          "type": "uint256"
        }
      ],
      "name": "tokenURI",
      "outputs": [
        {
          "internalType": "string",
          "name": "",
          "type": "string"
        }
      ],
      "stateMutability": "view",
      "type": "function",
      "constant": true
    }
  ],
  "bytecode": "0x60806040523480156200001157600080fd5b506040518060400160405280600681526020017f4c657474657200000000000000000000000000000000000000000000000000008152506040518060400160405280600481526020017f4c45545400000000000000000000000000000000000000000000000000000000815250816000908051906020019062000096929190620000b8565b508060019080519060200190620000af929190620000b8565b505050620001cd565b828054620000c69062000168565b90600052602060002090601f016020900481019282620000ea576000855562000136565b82601f106200010557805160ff191683800117855562000136565b8280016001018555821562000136579182015b828111156200013557825182559160200191906001019062000118565b5b50905062000145919062000149565b5090565b5b80821115620001645760008160009055506001016200014a565b5090565b600060028204905060018216806200018157607f821691505b602082108114156200019857620001976200019e565b5b50919050565b7f4e487b7100000000000000000000000000000000000000000000000000000000600052602260045260246000fd5b6125c780620001dd6000396000f3fe608060405234801561001057600080fd5b50600436106100ea5760003560e01c806370a082311161008c578063b88d4fde11610066578063b88d4fde1461025b578063c87b56dd14610277578063cec0e870146102a7578063e985e9c5146102d7576100ea565b806370a08231146101f157806395d89b4114610221578063a22cb4651461023f576100ea565b8063095ea7b3116100c8578063095ea7b31461016d57806323b872dd1461018957806342842e0e146101a55780636352211e146101c1576100ea565b806301ffc9a7146100ef57806306fdde031461011f578063081812fc1461013d575b600080fd5b61010960048036038101906101049190611900565b610307565b6040516101169190612039565b60405180910390f35b6101276103e9565b6040516101349190612054565b60405180910390f35b61015760048036038101906101529190611993565b61047b565b6040516101649190611fd2565b60405180910390f35b610187600480360381019061018291906118c4565b610500565b005b6101a3600480360381019061019e91906117be565b610618565b005b6101bf60048036038101906101ba91906117be565b610678565b005b6101db60048036038101906101d69190611993565b610698565b6040516101e89190611fd2565b60405180910390f35b61020b60048036038101906102069190611759565b61074a565b6040516102189190612236565b60405180910390f35b610229610802565b6040516102369190612054565b60405180910390f35b61025960048036038101906102549190611888565b610894565b005b6102756004803603810190610270919061180d565b610a15565b005b610291600480360381019061028c9190611993565b610a77565b60405161029e9190612054565b60405180910390f35b6102c160048036038101906102bc9190611952565b610bc6565b6040516102ce9190612236565b60405180910390f35b6102f160048036038101906102ec9190611782565b610c1b565b6040516102fe9190612039565b60405180910390f35b60007f80ac58cd000000000000000000000000000000000000000000000000000000007bffffffffffffffffffffffffffffffffffffffffffffffffffffffff1916827bffffffffffffffffffffffffffffffffffffffffffffffffffffffff191614806103d257507f5b5e139f000000000000000000000000000000000000000000000000000000007bffffffffffffffffffffffffffffffffffffffffffffffffffffffff1916827bffffffffffffffffffffffffffffffffffffffffffffffffffffffff1916145b806103e257506103e182610caf565b5b9050919050565b6060600080546103f890612465565b80601f016020809104026020016040519081016040528092919081815260200182805461042490612465565b80156104715780601f1061044657610100808354040283529160200191610471565b820191906000526020600020905b81548152906001019060200180831161045457829003601f168201915b5050505050905090565b600061048682610d19565b6104c5576040517f08c379a00000000000000000000000000000000000000000000000000000000081526004016104bc90612196565b60405180910390fd5b6004600083815260200190815260200160002060009054906101000a900473ffffffffffffffffffffffffffffffffffffffff169050919050565b600061050b82610698565b90508073ffffffffffffffffffffffffffffffffffffffff168373ffffffffffffffffffffffffffffffffffffffff16141561057c576040517f08c379a0000000000000000000000000000000000000000000000000000000008152600401610573906121f6565b60405180910390fd5b8073ffffffffffffffffffffffffffffffffffffffff1661059b610d85565b73ffffffffffffffffffffffffffffffffffffffff1614806105ca57506105c9816105c4610d85565b610c1b565b5b610609576040517f08c379a000000000000000000000000000000000000000000000000000000000815260040161060090612116565b60405180910390fd5b6106138383610d8d565b505050565b610629610623610d85565b82610e46565b610668576040517f08c379a000000000000000000000000000000000000000000000000000000000815260040161065f90612216565b60405180910390fd5b610673838383610f24565b505050565b61069383838360405180602001604052806000815250610a15565b505050565b6000806002600084815260200190815260200160002060009054906101000a900473ffffffffffffffffffffffffffffffffffffffff169050600073ffffffffffffffffffffffffffffffffffffffff168173ffffffffffffffffffffffffffffffffffffffff161415610741576040517f08c379a000000000000000000000000000000000000000000000000000000000815260040161073890612156565b60405180910390fd5b80915050919050565b60008073ffffffffffffffffffffffffffffffffffffffff168273ffffffffffffffffffffffffffffffffffffffff1614156107bb576040517f08c379a00000000000000000000000000000000000000000000000000000000081526004016107b290612136565b60405180910390fd5b600360008373ffffffffffffffffffffffffffffffffffffffff1673ffffffffffffffffffffffffffffffffffffffff168152602001908152602001600020549050919050565b60606001805461081190612465565b80601f016020809104026020016040519081016040528092919081815260200182805461083d90612465565b801561088a5780601f1061085f5761010080835404028352916020019161088a565b820191906000526020600020905b81548152906001019060200180831161086d57829003601f168201915b5050505050905090565b61089c610d85565b73ffffffffffffffffffffffffffffffffffffffff168273ffffffffffffffffffffffffffffffffffffffff16141561090a576040517f08c379a0000000000000000000000000000000000000000000000000000000008152600401610901906120d6565b60405180910390fd5b8060056000610917610d85565b73ffffffffffffffffffffffffffffffffffffffff1673ffffffffffffffffffffffffffffffffffffffff16815260200190815260200160002060008473ffffffffffffffffffffffffffffffffffffffff1673ffffffffffffffffffffffffffffffffffffffff16815260200190815260200160002060006101000a81548160ff0219169083151502179055508173ffffffffffffffffffffffffffffffffffffffff166109c4610d85565b73ffffffffffffffffffffffffffffffffffffffff167f17307eab39ab6107e8899845ad3d59bd9653f200f220920489ca2b5937696c3183604051610a099190612039565b60405180910390a35050565b610a26610a20610d85565b83610e46565b610a65576040517f08c379a0000000000000000000000000000000000000000000000000000000008152600401610a5c90612216565b60405180910390fd5b610a7184848484611180565b50505050565b6060610a8282610d19565b610ac1576040517f08c379a0000000000000000000000000000000000000000000000000000000008152600401610ab8906121d6565b60405180910390fd5b60006040518060400160405280600781526020017f697066733a2f2f0000000000000000000000000000000000000000000000000081525090506000600760008581526020019081526020016000208054610b1b90612465565b80601f0160208091040260200160405190810160405280929190818152602001828054610b4790612465565b8015610b945780601f10610b6957610100808354040283529160200191610b94565b820191906000526020600020905b815481529060010190602001808311610b7757829003601f168201915b505050505090508181604051602001610bae929190611fae565b60405160208183030381529060405292505050919050565b6000610bd260066111dc565b6000610bde60066111f2565b905082600760008381526020019081526020016000209080519060200190610c0792919061157d565b50610c123382611200565b80915050919050565b6000600560008473ffffffffffffffffffffffffffffffffffffffff1673ffffffffffffffffffffffffffffffffffffffff16815260200190815260200160002060008373ffffffffffffffffffffffffffffffffffffffff1673ffffffffffffffffffffffffffffffffffffffff16815260200190815260200160002060009054906101000a900460ff16905092915050565b60007f01ffc9a7000000000000000000000000000000000000000000000000000000007bffffffffffffffffffffffffffffffffffffffffffffffffffffffff1916827bffffffffffffffffffffffffffffffffffffffffffffffffffffffff1916149050919050565b60008073ffffffffffffffffffffffffffffffffffffffff166002600084815260200190815260200160002060009054906101000a900473ffffffffffffffffffffffffffffffffffffffff1673ffffffffffffffffffffffffffffffffffffffff1614159050919050565b600033905090565b816004600083815260200190815260200160002060006101000a81548173ffffffffffffffffffffffffffffffffffffffff021916908373ffffffffffffffffffffffffffffffffffffffff160217905550808273ffffffffffffffffffffffffffffffffffffffff16610e0083610698565b73ffffffffffffffffffffffffffffffffffffffff167f8c5be1e5ebec7d5bd14f71427d1e84f3dd0314c0f7b2291e5b200ac8c7c3b92560405160405180910390a45050565b6000610e5182610d19565b610e90576040517f08c379a0000000000000000000000000000000000000000000000000000000008152600401610e87906120f6565b60405180910390fd5b6000610e9b83610698565b90508073ffffffffffffffffffffffffffffffffffffffff168473ffffffffffffffffffffffffffffffffffffffff161480610f0a57508373ffffffffffffffffffffffffffffffffffffffff16610ef28461047b565b73ffffffffffffffffffffffffffffffffffffffff16145b80610f1b5750610f1a8185610c1b565b5b91505092915050565b8273ffffffffffffffffffffffffffffffffffffffff16610f4482610698565b73ffffffffffffffffffffffffffffffffffffffff1614610f9a576040517f08c379a0000000000000000000000000000000000000000000000000000000008152600401610f91906121b6565b60405180910390fd5b600073ffffffffffffffffffffffffffffffffffffffff168273ffffffffffffffffffffffffffffffffffffffff16141561100a576040517f08c379a0000000000000000000000000000000000000000000000000000000008152600401611001906120b6565b60405180910390fd5b6110158383836113ce565b611020600082610d8d565b6001600360008573ffffffffffffffffffffffffffffffffffffffff1673ffffffffffffffffffffffffffffffffffffffff1681526020019081526020016000206000828254611070919061237b565b925050819055506001600360008473ffffffffffffffffffffffffffffffffffffffff1673ffffffffffffffffffffffffffffffffffffffff16815260200190815260200160002060008282546110c79190612325565b92505081905550816002600083815260200190815260200160002060006101000a81548173ffffffffffffffffffffffffffffffffffffffff021916908373ffffffffffffffffffffffffffffffffffffffff160217905550808273ffffffffffffffffffffffffffffffffffffffff168473ffffffffffffffffffffffffffffffffffffffff167fddf252ad1be2c89b69c2b068fc378daa952ba7f163c4a11628f55a4df523b3ef60405160405180910390a4505050565b61118b848484610f24565b611197848484846113d3565b6111d6576040517f08c379a00000000000000000000000000000000000000000000000000000000081526004016111cd90612076565b60405180910390fd5b50505050565b6001816000016000828254019250508190555050565b600081600001549050919050565b600073ffffffffffffffffffffffffffffffffffffffff168273ffffffffffffffffffffffffffffffffffffffff161415611270576040517f08c379a000000000000000000000000000000000000000000000000000000000815260040161126790612176565b60405180910390fd5b61127981610d19565b156112b9576040517f08c379a00000000000000000000000000000000000000000000000000000000081526004016112b090612096565b60405180910390fd5b6112c5600083836113ce565b6001600360008473ffffffffffffffffffffffffffffffffffffffff1673ffffffffffffffffffffffffffffffffffffffff16815260200190815260200160002060008282546113159190612325565b92505081905550816002600083815260200190815260200160002060006101000a81548173ffffffffffffffffffffffffffffffffffffffff021916908373ffffffffffffffffffffffffffffffffffffffff160217905550808273ffffffffffffffffffffffffffffffffffffffff16600073ffffffffffffffffffffffffffffffffffffffff167fddf252ad1be2c89b69c2b068fc378daa952ba7f163c4a11628f55a4df523b3ef60405160405180910390a45050565b505050565b60006113f48473ffffffffffffffffffffffffffffffffffffffff1661156a565b1561155d578373ffffffffffffffffffffffffffffffffffffffff1663150b7a0261141d610d85565b8786866040518563ffffffff1660e01b815260040161143f9493929190611fed565b602060405180830381600087803b15801561145957600080fd5b505af192505050801561148a57506040513d601f19601f820116820180604052508101906114879190611929565b60015b61150d573d80600081146114ba576040519150601f19603f3d011682016040523d82523d6000602084013e6114bf565b606091505b50600081511415611505576040517f08c379a00000000000000000000000000000000000000000000000000000000081526004016114fc90612076565b60405180910390fd5b805181602001fd5b63150b7a0260e01b7bffffffffffffffffffffffffffffffffffffffffffffffffffffffff1916817bffffffffffffffffffffffffffffffffffffffffffffffffffffffff191614915050611562565b600190505b949350505050565b600080823b905060008111915050919050565b82805461158990612465565b90600052602060002090601f0160209004810192826115ab57600085556115f2565b82601f106115c457805160ff19168380011785556115f2565b828001600101855582156115f2579182015b828111156115f15782518255916020019190600101906115d6565b5b5090506115ff9190611603565b5090565b5b8082111561161c576000816000905550600101611604565b5090565b600061163361162e84612282565b612251565b90508281526020810184848401111561164b57600080fd5b611656848285612423565b509392505050565b600061167161166c846122b2565b612251565b90508281526020810184848401111561168957600080fd5b611694848285612423565b509392505050565b6000813590506116ab81612535565b92915050565b6000813590506116c08161254c565b92915050565b6000813590506116d581612563565b92915050565b6000815190506116ea81612563565b92915050565b600082601f83011261170157600080fd5b8135611711848260208601611620565b91505092915050565b600082601f83011261172b57600080fd5b813561173b84826020860161165e565b91505092915050565b6000813590506117538161257a565b92915050565b60006020828403121561176b57600080fd5b60006117798482850161169c565b91505092915050565b6000806040838503121561179557600080fd5b60006117a38582860161169c565b92505060206117b48582860161169c565b9150509250929050565b6000806000606084860312156117d357600080fd5b60006117e18682870161169c565b93505060206117f28682870161169c565b925050604061180386828701611744565b9150509250925092565b6000806000806080858703121561182357600080fd5b60006118318782880161169c565b94505060206118428782880161169c565b935050604061185387828801611744565b925050606085013567ffffffffffffffff81111561187057600080fd5b61187c878288016116f0565b91505092959194509250565b6000806040838503121561189b57600080fd5b60006118a98582860161169c565b92505060206118ba858286016116b1565b9150509250929050565b600080604083850312156118d757600080fd5b60006118e58582860161169c565b92505060206118f685828601611744565b9150509250929050565b60006020828403121561191257600080fd5b6000611920848285016116c6565b91505092915050565b60006020828403121561193b57600080fd5b6000611949848285016116db565b91505092915050565b60006020828403121561196457600080fd5b600082013567ffffffffffffffff81111561197e57600080fd5b61198a8482850161171a565b91505092915050565b6000602082840312156119a557600080fd5b60006119b384828501611744565b91505092915050565b6119c5816123af565b82525050565b6119d4816123c1565b82525050565b60006119e5826122e2565b6119ef81856122f8565b93506119ff818560208601612432565b611a0881612524565b840191505092915050565b6000611a1e826122ed565b611a288185612309565b9350611a38818560208601612432565b611a4181612524565b840191505092915050565b6000611a57826122ed565b611a61818561231a565b9350611a71818560208601612432565b80840191505092915050565b6000611a8a603283612309565b91507f4552433732313a207472616e7366657220746f206e6f6e20455243373231526560008301527f63656976657220696d706c656d656e74657200000000000000000000000000006020830152604082019050919050565b6000611af0601c83612309565b91507f4552433732313a20746f6b656e20616c7265616479206d696e746564000000006000830152602082019050919050565b6000611b30602483612309565b91507f4552433732313a207472616e7366657220746f20746865207a65726f2061646460008301527f72657373000000000000000000000000000000000000000000000000000000006020830152604082019050919050565b6000611b96601983612309565b91507f4552433732313a20617070726f766520746f2063616c6c6572000000000000006000830152602082019050919050565b6000611bd6602c83612309565b91507f4552433732313a206f70657261746f7220717565727920666f72206e6f6e657860008301527f697374656e7420746f6b656e00000000000000000000000000000000000000006020830152604082019050919050565b6000611c3c603883612309565b91507f4552433732313a20617070726f76652063616c6c6572206973206e6f74206f7760008301527f6e6572206e6f7220617070726f76656420666f7220616c6c00000000000000006020830152604082019050919050565b6000611ca2602a83612309565b91507f4552433732313a2062616c616e636520717565727920666f7220746865207a6560008301527f726f2061646472657373000000000000000000000000000000000000000000006020830152604082019050919050565b6000611d08602983612309565b91507f4552433732313a206f776e657220717565727920666f72206e6f6e657869737460008301527f656e7420746f6b656e00000000000000000000000000000000000000000000006020830152604082019050919050565b6000611d6e602083612309565b91507f4552433732313a206d696e7420746f20746865207a65726f20616464726573736000830152602082019050919050565b6000611dae602c83612309565b91507f4552433732313a20617070726f76656420717565727920666f72206e6f6e657860008301527f697374656e7420746f6b656e00000000000000000000000000000000000000006020830152604082019050919050565b6000611e14602983612309565b91507f4552433732313a207472616e73666572206f6620746f6b656e2074686174206960008301527f73206e6f74206f776e00000000000000000000000000000000000000000000006020830152604082019050919050565b6000611e7a602f83612309565b91507f4552433732314d657461646174613a2055524920717565727920666f72206e6f60008301527f6e6578697374656e7420746f6b656e00000000000000000000000000000000006020830152604082019050919050565b6000611ee0602183612309565b91507f4552433732313a20617070726f76616c20746f2063757272656e74206f776e6560008301527f72000000000000000000000000000000000000000000000000000000000000006020830152604082019050919050565b6000611f46603183612309565b91507f4552433732313a207472616e736665722063616c6c6572206973206e6f74206f60008301527f776e6572206e6f7220617070726f7665640000000000000000000000000000006020830152604082019050919050565b611fa881612419565b82525050565b6000611fba8285611a4c565b9150611fc68284611a4c565b91508190509392505050565b6000602082019050611fe760008301846119bc565b92915050565b600060808201905061200260008301876119bc565b61200f60208301866119bc565b61201c6040830185611f9f565b818103606083015261202e81846119da565b905095945050505050565b600060208201905061204e60008301846119cb565b92915050565b6000602082019050818103600083015261206e8184611a13565b905092915050565b6000602082019050818103600083015261208f81611a7d565b9050919050565b600060208201905081810360008301526120af81611ae3565b9050919050565b600060208201905081810360008301526120cf81611b23565b9050919050565b600060208201905081810360008301526120ef81611b89565b9050919050565b6000602082019050818103600083015261210f81611bc9565b9050919050565b6000602082019050818103600083015261212f81611c2f565b9050919050565b6000602082019050818103600083015261214f81611c95565b9050919050565b6000602082019050818103600083015261216f81611cfb565b9050919050565b6000602082019050818103600083015261218f81611d61565b9050919050565b600060208201905081810360008301526121af81611da1565b9050919050565b600060208201905081810360008301526121cf81611e07565b9050919050565b600060208201905081810360008301526121ef81611e6d565b9050919050565b6000602082019050818103600083015261220f81611ed3565b9050919050565b6000602082019050818103600083015261222f81611f39565b9050919050565b600060208201905061224b6000830184611f9f565b92915050565b6000604051905081810181811067ffffffffffffffff82111715612278576122776124f5565b5b8060405250919050565b600067ffffffffffffffff82111561229d5761229c6124f5565b5b601f19601f8301169050602081019050919050565b600067ffffffffffffffff8211156122cd576122cc6124f5565b5b601f19601f8301169050602081019050919050565b600081519050919050565b600081519050919050565b600082825260208201905092915050565b600082825260208201905092915050565b600081905092915050565b600061233082612419565b915061233b83612419565b9250827fffffffffffffffffffffffffffffffffffffffffffffffffffffffffffffffff038211156123705761236f612497565b5b828201905092915050565b600061238682612419565b915061239183612419565b9250828210156123a4576123a3612497565b5b828203905092915050565b60006123ba826123f9565b9050919050565b60008115159050919050565b60007fffffffff0000000000000000000000000000000000000000000000000000000082169050919050565b600073ffffffffffffffffffffffffffffffffffffffff82169050919050565b6000819050919050565b82818337600083830152505050565b60005b83811015612450578082015181840152602081019050612435565b8381111561245f576000848401525b50505050565b6000600282049050600182168061247d57607f821691505b60208210811415612491576124906124c6565b5b50919050565b7f4e487b7100000000000000000000000000000000000000000000000000000000600052601160045260246000fd5b7f4e487b7100000000000000000000000000000000000000000000000000000000600052602260045260246000fd5b7f4e487b7100000000000000000000000000000000000000000000000000000000600052604160045260246000fd5b6000601f19601f8301169050919050565b61253e816123af565b811461254957600080fd5b50565b612555816123c1565b811461256057600080fd5b50565b61256c816123cd565b811461257757600080fd5b50565b61258381612419565b811461258e57600080fd5b5056fea2646970667358221220b4fd449b7ff542fecea22faa7d8c41297bfb07558d1fe3879b3e51c017d1934f64736f6c63430008000033",
  "immutableReferences": {},
  "source": "// SPDX-License-Identifier: MIT\n\npragma solidity ^0.8.0;\n\nimport \"@openzeppelin/contracts/token/ERC721/ERC721.sol\";\nimport \"@openzeppelin/contracts/utils/Counters.sol\";\n\ncontract Letter is ERC721{\n\n  // increment the identifiers for the tokens we mint.\n  using Counters for Counters.Counter;\n  Counters.Counter private _tokenIds;\n\n  // mapping for the IPFS hashes associated with tokens\n  mapping (uint256 => string) private _tokenURIs;\n\n  constructor() public ERC721(\"Letter\", \"LETT\") {}\n\n  // add new URI to tokenURI mapping\n  function _setTokenURI(uint256 tokenId, string memory _tokenURI)\n  internal\n  virtual {\n    require(_exists(tokenId), \"ERC721Metadata: URI set of nonexistent token\");\n    _tokenURIs[tokenId] = _tokenURI;\n  }\n\n  // create a new Page\n  function createPage(string memory _ipfsCID)\n  public\n  returns (uint256)\n  {\n    // ToDo: check _ipfsCID formatting\n\n    _tokenIds.increment();\n    uint256 newTokenId = _tokenIds.current();\n    _tokenURIs[newTokenId] = _ipfsCID;\n    \n    _mint(msg.sender, newTokenId);\n\n    return newTokenId;\n  }\n\n  // read tokenURI\n  function tokenURI(uint256 tokenId) public\n  view\n  virtual\n  override\n  returns (string memory) {\n    require(_exists(tokenId), \"ERC721Metadata: URI query for nonexistent token\");\n\n    string memory base = \"ipfs://\";\n    string memory _tokenURI = _tokenURIs[tokenId];\n\n    return string(abi.encodePacked(base, _tokenURI));\n  }\n}\n",
  "sourcePath": "/home/bernardo/develop/letter/contracts/Letter.sol",
  "compiler": {
    "name": "solc",
    "version": "0.8.0+commit.c7dfd78e.Emscripten.clang"
  },
  "schemaVersion": "3.4.1",
  "updatedAt": "2021-06-08T23:30:59.693Z",
  "networkType": "ethereum",
  "devdoc": {
    "kind": "dev",
    "methods": {
      "approve(address,uint256)": {
        "details": "See {IERC721-approve}."
      },
      "balanceOf(address)": {
        "details": "See {IERC721-balanceOf}."
      },
      "getApproved(uint256)": {
        "details": "See {IERC721-getApproved}."
      },
      "isApprovedForAll(address,address)": {
        "details": "See {IERC721-isApprovedForAll}."
      },
      "name()": {
        "details": "See {IERC721Metadata-name}."
      },
      "ownerOf(uint256)": {
        "details": "See {IERC721-ownerOf}."
      },
      "safeTransferFrom(address,address,uint256)": {
        "details": "See {IERC721-safeTransferFrom}."
      },
      "safeTransferFrom(address,address,uint256,bytes)": {
        "details": "See {IERC721-safeTransferFrom}."
      },
      "setApprovalForAll(address,bool)": {
        "details": "See {IERC721-setApprovalForAll}."
      },
      "supportsInterface(bytes4)": {
        "details": "See {IERC165-supportsInterface}."
      },
      "symbol()": {
        "details": "See {IERC721Metadata-symbol}."
      },
      "tokenURI(uint256)": {
        "details": "See {IERC721Metadata-tokenURI}."
      },
      "transferFrom(address,address,uint256)": {
        "details": "See {IERC721-transferFrom}."
      }
    },
    "version": 1
  },
  "userdoc": {
    "kind": "user",
    "methods": {},
    "version": 1
  }
}